:020000040800F2
:100000008007002029020008A7160008DB15000859
:10001000A51600081F040008D11A000800000000FF
:10002000000000000000000000000000AB16000807
:100030004104000800000000A9160008AD160008E1
:10004000430200084302000843020008430200087C
:10005000430200084302000843020008430200086C
:10006000430200084302000843020008430200085C
:10007000430200084302000843020008430200084C
:10008000430200084302000843020008430200083C
:10009000430200084302000843020008430200082C
:1000A000430200084302000843020008430200081C
:1000B0004302000843020008000000004302000859
:1000C0004302000800000000000000004302000896
:1000D00000000000C51A000843020008430200089F
:1000E0004302000843020008000000000000000076
:1000F0000000000000000000000000000000000000
:1001000000000000000000000000000000000000EF
:100110000000000000000000430200084302000845
:1001200000000000000000000000000000000000CF
:1001300000000000000000000000000000000000BF
:1001400043020008430200080000000043020008C8
:10015000430200084302000843020008430200086B
:1001600043020008430200080000000000000000F5
:10017000000000000000000000000000000000007F
:10018000000000004302000800F002F800F03CF814
:100190000AA090E8000C82448344AAF10107DA45E2
:1001A00001D100F031F8AFF2090EBAE80F0013F0F8
:1001B000010F18BFFB1A43F0010318479019000004
:1001C000B0190000103A24BF78C878C1FAD8520795
:1001D00024BF30C830C144BF04680C6070470000C1
:1001E0000023002400250026103A28BF78C1FBD840
:1001F000520728BF30C148BF0B6070471FB501F0E0
:1002000083FC1FBD10B510BD00F0CFF81146FFF7FD
:10021000F5FF01F06EFC00F0EDF803B4FFF7F2FF1C
:1002200003BC00F0F5F80000094880470948004782
:10023000FEE7FEE7FEE7FEE7FEE7FEE7FEE7FEE796
:10024000FEE7FEE704480549054A064B70470000F3
:100250002517000889010008800100208007002080
:10026000800300208003002053EA020C00F0698024
:100270002DE9F04B4FF00006002B1FBFB3FA83F5BA
:1002800003FA05F424FA05F65E4012BF1643B2FAEB
:1002900082F502FA05F4C5F120051EBF22FA05FC1D
:1002A00044EA0C04203556EA044C4FEA144418BFC3
:1002B000641C4FF000084FF00009904271EB030CF2
:1002C00039D3002919BFB1FA81F701FA07F6B0FA5C
:1002D00080F700FA07F6C7F120071EBF20FA07FCD7
:1002E00046EA0C062037B6FBF4FCA7EB0507103FE7
:1002F00007F01F0BCBF120060CFA0BFB2CFA06F6CD
:1003000044BFB3460026202FA4BF5E464FF0000B2B
:100310005BEA060C08BF4FF0010B19EB0B09ABFBB6
:10032000027C48EB0608C01B06FB02CC0BFB03CC8F
:1003300071EB0C01C1E70B46024641464846BDE859
:10034000F08B13B54FF000004FF00001AFF30080C9
:10035000BDE81C4070474FF0000200B513469446BC
:100360009646203922BFA0E80C50A0E80C50B1F10D
:100370002001BFF4F7AF090728BFA0E80C5048BF21
:100380000CC05DF804EB890028BF40F8042B08BFBF
:10039000704748BF20F8022B11F0804F18BF00F8BB
:1003A000012B7047704770477047754600F02CF876
:1003B000AE4605006946534620F00700854618B052
:1003C00020B5FFF73FFFBDE820404FF000064FF09B
:1003D00000074FF000084FF0000B21F00701AC467A
:1003E000ACE8C009ACE8C009ACE8C009ACE8C00999
:1003F0008D46704710B50446AFF300802046BDE837
:100400001040FFF70ABF0000004870471C010020A1
:1004100001491820ABBEFEE7260002007047FEE748
:10042000054A016811441422B1FBF2F1890001640C
:100430000249C16370470000F8FFFDBF00000240A1
:10044000704772B6FEE710B590F82110002202291D
:1004500005D00421816380F82020012010BD0168AF
:100460000B6823F00E030B6001680B6823F0010397
:100470000B6090F84030C46B012101FA03F3636014
:1004800080F8211080F82020002010BD10B590F8D1
:1004900021100024022903D004218163012418E0E3
:1004A00001680A6822F00E020A6001680A6822F0F8
:1004B00001020A6090F84020C36B012101FA02F2A8
:1004C0005A6080F82110002180F82010416B01B1A2
:1004D0008847204610BD70B5040021D0022084F862
:1004E00021002268116843F6F0708143D4E90103CA
:1004F0001843D4E903352B43184363691843A369B0
:100500001843E3691843084310602046FFF788FF4B
:100510000020A063012184F8211084F8200070BD20
:10052000012070BD2DE9F04FDFF80092002309F1A2
:10053000040A012603250AF1040B85B00F270BF1ED
:10054000040EEAE006FA03F422407CD091F804C0DD
:100550000CF0030CBCF1010F02D0BCF1020F26D14C
:10056000D0F808C0CDF800C04FEA430C05FA0CF8EB
:10057000CDF810C0DDF800C02CEA080CCDF800C0A2
:10058000D1F80C80DDF810C008FA0CF8DDF800C0D6
:1005900048EA0C08C0F80880D0F804C02CEA040C23
:1005A0000C79C4F300149C4044EA0C0444600C79B8
:1005B000E443A4070DD0D0F80CC04FEA430805FA75
:1005C00008F42CEA040C8C6804FA08F444EA0C04DD
:1005D000C4600C7904F00304022C19D1DC0800EB90
:1005E00084040294246A4FEA437C4FEADC6CCDF821
:1005F00010C007FA0CFC24EA0C04D1F81080DDF8D6
:1006000010C008FA0CF848EA0408029CC4F82080DC
:1006100004684FEA430805FA08FC24EA0C0491F840
:1006200004C00CF0030C0CFA08FC4CEA040CC0F8F3
:1006300000C04C6814F4403F6ED03D4CD4F818C054
:100640004CF0010C00E067E0C4F818C0A46923F086
:10065000030C04F001040094364C64440294A46832
:100660004FEA837C4FEA1C7807FA08FC24EA0C0462
:10067000B0F1904F06D0DFF8C0C0604505D14FF013
:10068000010C12E04FF0000C0FE0DFF8B0C0604545
:1006900002D14FF0020C08E0DFF8A4C0604502D19F
:1006A0004FF0030C01E04FF0050C0CFA08FC4CEA8B
:1006B000040C029CC4F808C0D9F80040CC46D1F81C
:1006C000048094435FEAC83800D51443CCF8004056
:1006D000DAF80040D446D1F8048094435FEA8838C1
:1006E00000D51443CCF80040DBF80040DC46D1F8DC
:1006F000048094435FEAC82800D51443CCF8004036
:10070000DEF80040F446D1F8048094435FEA88287C
:1007100000D51443CCF800405B1C0A6832FA03F49D
:100720007FF410AF05B0BDE8F08F00000004014079
:10073000001002400000014000040048000800488A
:10074000000C00480AB18161704781627047000067
:10075000014880687047000000000020024881685E
:10076000027811448160704700000020074810B5EE
:10077000016841F010010160032000F06DF80020D5
:1007800000F006F800F024F8002010BD0020024020
:1007900070B50D4D04464FF47A712878B1FBF0F036
:1007A0000A490968B1FBF0F000F01AFD48B9102CB5
:1007B00007D200222146501E00F02EF800206C6067
:1007C00070BD012070BD0000000000200C00002062
:1007D000094808B5816941F001018161816901F031
:1007E00001010091C16941F08051C161C06900F00F
:1007F0008050009008BD000000100240002809DB76
:1008000000F01F02012191404009800000F1E0202A
:10081000C0F8001170470000F0B40E4B1B680C4686
:10082000C3F30223C3F10705042D00D90425191DC4
:10083000072901D2002300E0DB1E012606FA05F19C
:10084000491E214099409E40761E16403143F0BC1F
:1008500001F03FB90CED00E0064900F0070208681E
:100860004FF6FF03184040EA0220034A1043086095
:10087000704700000CED00E00000FA052DE9F84F8C
:100880000446006800265C4DC0036ED5E869C000D0
:1008900008D4E86940F08050E861E869012600F07A
:1008A0008050009055480168C90512D401688046FF
:1008B00041F480710160FFF74BFF074605E000BF80
:1008C000FFF746FFC01B642835D8D8F80000C005E4
:1008D000F6D5286A10F4407053D0A18801F4407115
:1008E00081424ED0286A4FF4803191FAA1F2B2FAD7
:1008F00082F29700424A4FF00108174420F44070FA
:10090000C7F8008491FAA1F1B1FA81F102EB8101FB
:100910000023C1F800342862C00732D0FFF718FF67
:10092000074641F2883A4FF0020907E0FFF710FF4F
:10093000C11B514502D90320BDE8F88F99FAA9F1EE
:10094000B1FA81F141F040014846B8EB511F01D1A5
:1009500029680CE090FAA0F1B1FA81F141F0400170
:10096000B0EB511F02D1296A01E015E0696A99FADA
:10097000A9F0B0FA80F000F01F0008FA00F211426E
:10098000D4D0286A616820F44070084328621EB100
:10099000E86920F08050E8612078C00705D0286B16
:1009A000A16820F00300084328632078800605D55D
:1009B000286BE16820F010000843286320780006C7
:1009C00005D5E86A216920F4F8700843E8622088B8
:1009D000C00405D5286B616920F480700843286342
:1009E0002088400405D5286BA16920F48050084375
:1009F00028630020A0E700000010024000700040C3
:100A0000000042422DE9F0470F46050069D04A4EEA
:100A1000306800F00700B84209D2306820F00700C3
:100A200038433060306800F00700B84259D1287868
:100A3000424C800705D56068A96820F0F0000843A3
:100A400060602878C0073DD06968012001290DD079
:100A5000022923D05FF0020393FAA3F2B2FA82F2E2
:100A600042F02002520904D0226803E04FF4003320
:100A7000F2E7626A93FAA3F3B3FA83F303F01F0376
:100A8000984002422DD0606820F003000843606067
:100A9000FFF75EFE804641F288390CE04FF00073AC
:100AA000DAE700BFFFF754FEA0EB0801494502D981
:100AB0000320BDE8F0876068696800F00C00B0EBC7
:100AC000810FEFD1306800F00700B8420BD93068D1
:100AD00020F0070038433060306800F00700B8426B
:100AE00001D00120E5E72878400705D56068E9686E
:100AF00020F4E060084360602878000706D560684D
:100B0000296920F4605040EAC100606000F04EF8AE
:100B10006168F02292FAA2F201F0F001B2FA82F2D8
:100B2000D140074A515CC840064908600648006841
:100B3000FFF72EFE0020BCE700200240001002401C
:100B4000321B00080C00002004000020084809495E
:100B5000006849684FF4E06292FAA2F201F4E061A1
:100B6000B2FA82F2D140044A515CC840704700009A
:100B70000C00002000100240421B000808480949F0
:100B8000006849684FF4605292FAA2F201F4605191
:100B9000B2FA82F2D140044A515CC840704700006A
:100BA0000C00002000100240421B0008164A10B53D
:100BB0005168164801F00C03042B20D0082B1ED1DD
:100BC0004FF4701494FAA4F401F47013B4FA84F49A
:100BD000E3400F4CD26AE45C0F2393FAA3F302F0D4
:100BE0000F02B3FA83F3DA40094B1033C9039A5C5E
:100BF00006D500231946FFF737FBA0FB040110BD03
:100C00000448A4FB000110BD0010024000127A004D
:100C1000121B000800093D002DE9F84F050071D0B6
:100C20002878FC4EC0074FF0010425D07068670497
:100C3000C0F38100012807D07068C0F3810002284A
:100C40001BD17068C00318D597FAA7F0B0FA80F0EE
:100C500040F02000400901D0306800E0706A97FA47
:100C6000A7F1B1FA81F101F01F0104FA01F1084284
:100C700065D068680028D2D061E06868B0F5803F30
:100C80000BD010B1B0F5A02F17D0306820F4803011
:100C90003060306820F4802002E0306840F480301A
:100CA0003060F06AA96820F00F000843F0626868BD
:100CB00020B3FFF74DFD80460AE0306840F4802005
:100CC0003060EAE7FFF744FDA0EB0800642871D824
:100CD00097FAA7F0B0FA80F040F02000400901D068
:100CE000306800E0706A97FAA7F1B1FA81F101F07B
:100CF0001F0104FA01F10842E4D020E0FFF728FDCB
:100D0000804607E0C2E000BFFFF722FDA0EB08002D
:100D10006428DCD897FAA7F0B0FA80F040F0200001
:100D2000400901D0306800E0706A97FAA7F1B1FA83
:100D300081F101F01F0104FA01F10842E4D12878A1
:100D4000DFF8D48280074FF0000A4FF0020730D559
:100D500070684FF0F80B10F00C0F07D07068C0F3FC
:100D60008100022827D17068C00324D497FAA7F025
:100D7000B0FA80F040F02000400901D0306800E077
:100D8000706A97FAA7F1B1FA81F101F01F0104FA34
:100D900001F1084202D02869012877D130689BFA16
:100DA000ABF220F0F8016869B2FA82F29040014398
:100DB00031605AE064E1286988B394FAA4F0B0FA8B
:100DC00080F048F82040FFF7C3FC814606E000BFF2
:100DD000FFF7BEFCA0EB090002289AD897FAA7F00B
:100DE000B0FA80F040F02000400901D0306800E007
:100DF000706A97FAA7F1B1FA81F101F01F0104FAC4
:100E000001F10842E4D030689BFAABF26969B2FAAA
:100E100082F220F0F80091400843306025E0FFE7BF
:100E200094FAA4F0B0FA80F048F820A0FFF790FC04
:100E3000814605E0FFF78CFCA0EB09000228CCD826
:100E400097FAA7F0B0FA80F040F02000400901D0F6
:100E5000306800E0706A97FAA7F1B1FA81F101F009
:100E60001F0104FA01F10842E4D1287800076CD58B
:100E7000A869A8B394FAA4F0B0FA80F008EB800057
:100E8000C0F88044FFF764FC814607E0A4E100BF9E
:100E9000FFF75EFCA0EB090002289ED897FAA7F0A6
:100EA000B0FA80F040F06000B4EB501F01D1306820
:100EB0000BE097FAA7F0B0FA80F040F06000B7EBD3
:100EC000501F01D1306A00E0706A97FAA7F1B1FAB9
:100ED00081F101F01F0104FA01F21042D8D034E090
:100EE000FFE794FAA4F1B1FA81F108EB8101C1F8AE
:100EF00080A4FFF72DFC814606E000BFFFF728FC29
:100F0000A0EB090002289AD897FAA7F0B0FA80F06F
:100F100040F06000B4EB501F01D130680BE097FA4D
:100F2000A7F0B0FA80F040F06000B7EB501F01D19D
:100F3000306A00E0706A97FAA7F1B1FA81F101F026
:100F40001F0104FA01F21042D8D12878400768D571
:100F5000F0694FF00009C00009D4F06940F08050FA
:100F6000F061F0694FF0010900F0805000902B48CB
:100F70000168C90512D4016841F480710160FFF76E
:100F8000E7FB834606E000BFFFF7E2FBA0EB0B00A8
:100F9000642875D821480068C005F5D5E86801289F
:100FA0000AD008B1052811D0306A20F00100306263
:100FB000306A20F0040002E0306A40F00100306244
:100FC000E86868B3FFF7C4FB83460DE0306A40F081
:100FD00004003062F0E700BFFFF7BAFBA0EB0B01A3
:100FE00041F2883081424BD897FAA7F0B0FA80F0EE
:100FF00040F04000B4EB501F01D1306813E097FA85
:10100000A7F0B0FA80F040F04000B7EB501F09D1D4
:10101000306A08E0001002400000424200700040C8
:101020000CE040E0706A97FAA7F1B1FA81F101F0A3
:101030001F0104FA01F21042CED02DE0FFF788FB29
:10104000834607E0FFF784FBA0EB0B0141F28830F9
:10105000814215D897FAA7F0B0FA80F040F040002E
:10106000B4EB501F01D130680CE097FAA7F0B0FA4A
:1010700080F040F04000B7EB501F02D1306A01E031
:1010800083E0706A97FAA7F1B1FA81F101F01F01CC
:1010900004FA01F21042D5D1B9F1000F03D0F06982
:1010A00020F08050F061E86980B37168C1F381017C
:1010B000022977D04FF080714F000228504609D0A6
:1010C00091FAA1F1B1FA81F148F82100FFF740FB54
:1010D00005465DE0894691FAA1F1B1FA81F1C24677
:1010E00048F82100FFF734FB804605E0FFF730FBAE
:1010F000A0EB0800022848D897FAA7F0B0FA80F0D1
:1011000040F02000400902D0306801E066E0706ADB
:1011100097FAA7F1B1FA81F101F01F0104FA01F188
:101120000842E3D1D5E908100843716821F474112D
:101130000843706099FAA9F0B0FA80F04AF82040AC
:10114000FFF706FB054604E0FFF702FB401B022801
:101150001BD897FAA7F0B0FA80F040F020004009C1
:1011600001D0306800E0706A97FAA7F1B1FA81F116
:1011700001F01F0104FA01F10842E5D02EE000BFA2
:10118000FFF7E6FA401B022802D90320BDE8F88FDA
:1011900097FAA7F0B0FA80F040F02000400902D0A2
:1011A000306801E00BE0706A97FAA7F1B1FA81F1BB
:1011B00001F01F0104FA01F10842E1D10EE001281B
:1011C000E4D070682A6A00F48031914204D1696ADF
:1011D00000F47010884201D00120D7E70020D5E745
:1011E00010B5401EB0F1807F01D3012010BD4FF03B
:1011F000E02460610F21601700F06BFC0020A0610B
:1012000007202061002010BD704770477047000024
:101210002DE9F04102680446D0691168936840F6F0
:101220000F0528424FF0000505D186067ED58E06B3
:101230007CD5616E1AE1994F03F001060F403743E8
:1012400074D0C70709D0CF0507D501271762D4F896
:10125000802042F00102C4F8802082070AD5DA0714
:1012600008D0276802223A62D4F8802042F00402B3
:10127000C4F8802042070AD5DA0708D02368042280
:101280001A62D4F8802042F00202C4F880200207DB
:101290000CD501F02002324308D0236808221A62DC
:1012A000D4F8802042F00802C4F8802002050BD553
:1012B0004A0109D523684FF400621A62D4F88020ED
:1012C00042F02002C4F88020D4F88020002A35D0D3
:1012D000800605D5880603D5616E09B1204688478A
:1012E000D4F8800021688968490602D410F0280FDC
:1012F00026D0204600F0BAFA2068806840061AD549
:101300002068083050E8001F21F0400140E800123A
:10131000002AF5D1206F70B161494163206FFFF75A
:10132000B5F800280AD0206F416B01E00EE020469E
:10133000BDE8F04108472046FFF768FFBDE8F081AF
:101340002046FFF763FFC4F88050F7E7276E20269A
:10135000012F7AD1C70678D5CF0676D51020106236
:1013600020688068400640D5216F08684068000406
:10137000000CE3D0B4F858208242DFD9A4F85A0018
:10138000886920282AD0216851E8000F20F4807055
:1013900041E80002002AF6D12068083050E8001F1A
:1013A00021F0010140E80012002AF5D12068083040
:1013B00050E8001F21F0400140E80012002AF5D15A
:1013C000E6672566216851E8000F20F0100041E82B
:1013D0000002002AF6D1206FFFF735F8B4F8580064
:1013E000B4F85A10401A81B22AE0B4F85800B4F8A0
:1013F0005A10401A81B2B4F85A0000289ED0002931
:101400009CD0226852E8000F20F4907042E800035C
:10141000002BF6D12068083050E8002F22F001029E
:1014200040E80023002BF5D1E66725666566226853
:1014300052E8000F20F0100042E80003002BF6D124
:101440002046FFF7E1FE79E7FFE7C70209D55B0217
:1014500007D54FF4801010622046BDE8F041FFF739
:10146000D4BE020606D50A0604D5A16E00297FF473
:101470005EAF63E74006E6D54806E4D5204601683E
:1014800051E8002F22F0400241E80023002BF6D162
:101490008667856600F0A0F850E700002001000490
:1014A0005918000810B5040002D0A06F10B107E071
:1014B000012010BD002084F87400204600F026F8BA
:1014C0002420A0672068016821F001010160204606
:1014D00000F0F2F90128ECD0606A10B1204600F06B
:1014E00029F92068416821F49041416020688168B1
:1014F00021F02A0181602068016841F0010101604A
:101500002046BDE8104000F079B90000F0B587B082
:10151000064614216846FEF71EFF2A4930688842B5
:101520004ED12948816941F480418161816901F48A
:1015300080410591416941F4802141614069002465
:1015400000F480200590C02000900220CDE9010425
:10155000032003900720049069461C48FEF7E2FF31
:101560001C4D1B488027C5E90004C5E902472C61D2
:101570006C61AC612846EC61FEF7ADFF08B1FEF787
:1015800060FF35676E62134D11484435143801C54C
:10159000102091C50F4845F8104944306C61AC618A
:1015A000EC61FEF798FF08B1FEF74BFFF5660022ED
:1015B000022125206E62FFF72FF92520FFF71EF983
:1015C00007B0F0BD003801400010024000040048A0
:1015D00058000240940000207047FEE7054808B517
:1015E000416941F001014161406900F00100009052
:1015F00008BD00000010024030B587B014216846D5
:10160000FEF7A9FE1648416941F480214161416914
:1016100001F480210591416941F400314161406943
:10162000104D00F400300590002207212846FFF7F6
:1016300089F807200124CDE900040320CDE9024008
:1016400069462846FEF76EFF182000900020CDE97D
:10165000010469462846FEF765FF07B030BD00006B
:1016600000100240000400480D4810B50B4901600D
:101670004FF4E1314160002181600C22C160C0E97A
:1016800004128161C16101624162FFF70BFF002812
:1016900003D0BDE81040FEF7D4BE10BD00380140B5
:1016A00010000020FEE7FEE770477047FFF756B8CE
:1016B00070B596B028216846FEF74DFE14210AA8A1
:1016C000FEF749FE1C210FA8FEF745FE0225012664
:1016D00010200095CDE9046000244FF46010CDE99E
:1016E000084007956846FFF797FA08B172B6FEE71B
:1016F0000F20CDE90A054FF48060CDE90C400221AE
:101700000AA80E94FFF77EF908B172B6FEE70FA89B
:101710000F961194FFF7B2F8002801D072B6FEE7D9
:1017200016B070BD0248016841F470010160704755
:1017300088ED00E090F82410C90706D001684A68D7
:10174000836A22F400321A434A6090F82410890711
:1017500006D501684A68C36A22F480321A434A6097
:1017600090F82410490706D501684A68036B22F4F3
:1017700080221A434A6090F82410090706D50168B0
:101780004A68436B22F400421A434A6090F82410DE
:10179000C90606D501688A68836B22F480521A4311
:1017A0008A6090F82410890606D501688A68C36BA0
:1017B00022F400521A438A6090F82410490611D589
:1017C00001684A68036C22F480121A434A60016C73
:1017D000B1F5801F06D101684A68436C22F4C0024B
:1017E0001A434A6090F82410090606D501684A6831
:1017F000806C22F4002202434A607047F8B500264C
:101800000446C0F88060FEF7A3FF05462068006824
:101810006FF07E47000708D52B4600224FF40011D9
:101820002046009700F0EAF860B920680068400799
:101830000AD52B4600224FF480012046009700F085
:10184000DDF808B10320F8BD2020A067E067266618
:1018500084F874600020F8BD10B5406A0021A0F83B
:101860005A10A0F85210FFF7D1FC10BD016851E8E2
:10187000002F22F4907241E80023002BF6D101687A
:10188000083151E8002F22F0010241E80023002B2B
:10189000F5D1016E012908D1026852E8001F21F03C
:1018A000100142E80013002BF6D12021C16700216E
:1018B000016641667047000070B504468068216982
:1018C000E2690843616900251143226808431168F1
:1018D000444B19400143116020684168E26821F4DB
:1018E000405111434160A169206A084321688A6818
:1018F00022F4306202438A603B492068884210D15A
:101900003A48006B10F0030011D0012805D00228DE
:1019100005D003280DD102210CE004210AE00821A2
:1019200008E03349884202D03249884201D100217F
:1019300000E01021E3694FF400422F484FF6EF76A4
:10194000934227D1092941D2DFE801F005080E4072
:101950000B4040402200FFF7F9F804E0FFF70EF9D2
:1019600001E0FFF723F990B34100606801EB5001FB
:10197000B1FBF0F080B2A0F11001B14226D84FF6D1
:10198000F0710140C0F3420001432068C16023E0D0
:101990001046E9E7092919D2DFE801F005080E1819
:1019A0000B1818181A00FFF7D1F804E0FFF7E6F853
:1019B00001E0FFF7FBF850B1616800EB5100B0FBAC
:1019C000F1F080B2A0F11001B14203D9012503E08A
:1019D0001046F1E72168C86000206066A0662846CE
:1019E00070BD0000F369FFEF0038014000100240B5
:1019F000004400400048004000127A002DE9F04702
:101A00009A4617460E4604464FF000094FF020084C
:101A1000089D4AE0681C48D0FEF79AFEA0EB0A0039
:101A2000A8422AD84DB32068016849073DD5C0694E
:101A3000C043000539D421684FF400600862206873
:101A400050E8001F21F4D07140E80012002AF6D1BE
:101A50002068083050E8001F21F0010140E8001222
:101A6000002AF5D1C4F87880C4F87C80C4F880805E
:101A700084F874900320BDE8F087216851E8000FD6
:101A800020F4D07041E80002002AF6D12068083026
:101A900050E8001F21F0010140E80012002AF5D1B2
:101AA000C4F87880C4F87C80E2E72068C06936EA30
:101AB000000004D00020B842ACD00020DBE70120B9
:101AC000F9E700000148FFF7A3BB00001000002069
:101AD000FEE70907090E002804DB00F1E02080F88A
:101AE0000014704700F00F0000F1E02080F8141D92
:101AF0007047FEF73BFEFFF7DBFDFFF77DFDFFF7CD
:101B00006DFDFFF7B1FDFEE74FF04070E1EE100A0A
:101B1000704702030405060708090A0B0C0D0E0F97
:101B200010100102030405060708090A0B0C0D0E2C
:101B30000F1000000000000000000102030406076F
:101B40000809000000000102030400006C1B0008EB
:101B50000000002010000000C40100087C1B0008E9
:101B60001000002070070000E001000801000000E4
:0C1B7000100000000000000000127A00CD
:040000050800018965
:00000001FF
