:020000040800F2
:10000000B0050020A10100084B18000815170008D2
:1000100049180008AD020008F91F000800000000A0
:100020000000000000000000000000004F18000861
:10003000DD020008000000004D18000851180008FB
:10004000BB010008BB010008BB010008BB010008A0
:10005000BB010008BB010008BB010008BB01000890
:10006000BB010008BB010008BB010008BB01000880
:10007000BB010008BB010008BB010008BB01000870
:10008000BB010008BB010008BB010008BB01000860
:10009000BB010008BB010008BB010008BB01000850
:1000A000BB010008BB010008BB010008BB01000840
:1000B000BB010008BB01000800000000BB010008F4
:1000C000BB0100080000000000000000BB010008A8
:1000D00000000000C51F0008BB010008BB010008AC
:1000E000BB010008BB010008000000000000000088
:1000F0000000000000000000000000000000000000
:1001000000000000000000000000000000000000EF
:100110000000000000000000BB010008BB01000857
:1001200000000000000000000000000000000000CF
:1001300000000000000000000000000000000000BF
:10014000BB010008BB01000800000000BB01000863
:10015000BB010008BB010008BB010008BB0100088F
:10016000BB010008BB010008000000000000000007
:10017000000000000000000000000000000000007F
:1001800000000000BB010008DFF810D000F07CF890
:100190000048004749210008AFF30080B005002067
:1001A0000648804706480047FEE7FEE7FEE7FEE711
:1001B000FEE7FEE7FEE7FEE7FEE7FEE7C9180008F8
:1001C000890100082DE9F05F0546002092469B4614
:1001D00088460646814640241BE02846414647465D
:1001E000224600F020F853465A46C01A914110D3D7
:1001F00011461846224600F038F82D1A67EB010820
:100200004F4622460120002100F02FF817EB00098D
:100210004E41201EA4F10104DFDC484631462A4647
:100220004346BDE8F09F202A04DB203A21FA02F081
:100230000021704721FA02F3D040C2F12002914020
:10024000084319467047D2B201E000F8012B491E5D
:10025000FBD270470022F6E710B513460A46044663
:100260001946FFF7F0FF204610BD202A04DB203A94
:1002700000FA02F1002070479140C2F1200320FAF9
:1002800003F3194390407047064C074D06E0E068C1
:1002900040F0010394E8070098471034AC42F6D3CD
:1002A000FFF776FF4422000864220008FEE7000002
:1002B000084810B5014602784888074CC0F30D0382
:1002C000401C80B2E2544880C72801D900204880F1
:1002D00010BD000004000020E8000020704772B646
:1002E000FEE710B590F821100022022905D0042164
:1002F000816380F82020012010BD01680B6823F085
:100300000E030B6001680B6823F001030B6090F88B
:100310004030C46B012101FA03F3636080F82110BF
:1003200080F82020002010BD10B590F82110002486
:10033000022903D004218163012418E001680A68BE
:1003400022F00E020A6001680A6822F001020A60C7
:1003500090F84020C36B012101FA02F25A6080F844
:100360002110002180F82010416B01B18847204600
:1003700010BD00002DE9F04FDFF80092002309F1D5
:10038000040A012603250AF1040B85B00F270BF19F
:10039000040EEAE006FA03F422407CD091F804C08F
:1003A0000CF0030CBCF1010F02D0BCF1020F26D1FE
:1003B000D0F808C0CDF800C04FEA430C05FA0CF89D
:1003C000CDF810C0DDF800C02CEA080CCDF800C054
:1003D000D1F80C80DDF810C008FA0CF8DDF800C088
:1003E00048EA0C08C0F80880D0F804C02CEA040CD5
:1003F0000C79C4F300149C4044EA0C0444600C796A
:10040000E443A4070DD0D0F80CC04FEA430805FA26
:1004100008F42CEA040C8C6804FA08F444EA0C048E
:10042000C4600C7904F00304022C19D1DC0800EB41
:1004300084040294246A4FEA437C4FEADC6CCDF8D2
:1004400010C007FA0CFC24EA0C04D1F81080DDF887
:1004500010C008FA0CF848EA0408029CC4F820808E
:1004600004684FEA430805FA08FC24EA0C0491F8F2
:1004700004C00CF0030C0CFA08FC4CEA040CC0F8A5
:1004800000C04C6814F4403F6ED03D4CD4F818C006
:100490004CF0010C00E067E0C4F818C0A46923F038
:1004A000030C04F001040094364C64440294A468E4
:1004B0004FEA837C4FEA1C7807FA08FC24EA0C0414
:1004C000B0F1904F06D0DFF8C0C0604505D14FF0C5
:1004D000010C12E04FF0000C0FE0DFF8B0C06045F7
:1004E00002D14FF0020C08E0DFF8A4C0604502D151
:1004F0004FF0030C01E04FF0050C0CFA08FC4CEA3D
:10050000040C029CC4F808C0D9F80040CC46D1F8CD
:10051000048094435FEAC83800D51443CCF8004007
:10052000DAF80040D446D1F8048094435FEA883872
:1005300000D51443CCF80040DBF80040DC46D1F88D
:10054000048094435FEAC82800D51443CCF80040E7
:10055000DEF80040F446D1F8048094435FEA88282E
:1005600000D51443CCF800405B1C0A6832FA03F44F
:100570007FF410AF05B0BDE8F08F0000000401402B
:10058000001002400000014000040048000800483C
:10059000000C00480AB18161704781627047000019
:1005A0000148806870470000080000200248816808
:1005B000027811448160704708000020074810B598
:1005C000016841F010010160032000F06DF8002087
:1005D00000F006F800F024F8002010BD00200240D2
:1005E00070B50D4D04464FF47A712878B1FBF0F0E8
:1005F0000A490968B1FBF0F000F01AFD48B9102C67
:1006000007D200222146501E00F02EF800206C6018
:1006100070BD012070BD0000080000201400002003
:10062000094808B5816941F001018161816901F0E2
:1006300001010091C16941F08051C161C06900F0C0
:100640008050009008BD000000100240002809DB27
:1006500000F01F02012191404009800000F1E020DC
:10066000C0F8001170470000F0B40E4B1B680C4638
:10067000C3F30223C3F10705042D00D90425191D76
:10068000072901D2002300E0DB1E012606FA05F14E
:10069000491E214099409E40761E16403143F0BCD1
:1006A00001F0BCBC0CED00E0064900F00702086850
:1006B0004FF6FF03184040EA0220034A1043086047
:1006C000704700000CED00E00000FA052DE9F84F3E
:1006D0000446006800265C4DC0036ED5E869C00082
:1006E00008D4E86940F08050E861E869012600F02C
:1006F0008050009055480168C90512D401688046B1
:1007000041F480710160FFF74BFF074605E000BF31
:10071000FFF746FFC01B642835D8D8F80000C00595
:10072000F6D5286A10F4407053D0A18801F44071C6
:1007300081424ED0286A4FF4803191FAA1F2B2FA88
:1007400082F29700424A4FF00108174420F44070AB
:10075000C7F8008491FAA1F1B1FA81F102EB8101AD
:100760000023C1F800342862C00732D0FFF718FF19
:10077000074641F2883A4FF0020907E0FFF710FF01
:10078000C11B514502D90320BDE8F88F99FAA9F1A0
:10079000B1FA81F141F040014846B8EB511F01D157
:1007A00029680CE090FAA0F1B1FA81F141F0400122
:1007B000B0EB511F02D1296A01E015E0696A99FA8C
:1007C000A9F0B0FA80F000F01F0008FA00F2114220
:1007D000D4D0286A616820F44070084328621EB1B2
:1007E000E86920F08050E8612078C00705D0286BC8
:1007F000A16820F00300084328632078800605D50F
:10080000286BE16820F01000084328632078000678
:1008100005D5E86A216920F4F8700843E862208869
:10082000C00405D5286B616920F4807008432863F3
:100830002088400405D5286BA16920F48050084326
:1008400028630020A0E70000001002400070004074
:10085000000042422DE9F0470F46050069D04A4E9C
:10086000306800F00700B84209D2306820F0070075
:1008700038433060306800F00700B84259D128781A
:10088000424C800705D56068A96820F0F000084355
:1008900060602878C0073DD06968012001290DD02B
:1008A000022923D05FF0020393FAA3F2B2FA82F294
:1008B00042F02002520904D0226803E04FF40033D2
:1008C000F2E7626A93FAA3F3B3FA83F303F01F0328
:1008D000984002422DD0606820F003000843606019
:1008E000FFF75EFE804641F288390CE04FF000735E
:1008F000DAE700BFFFF754FEA0EB0801494502D933
:100900000320BDE8F0876068696800F00C00B0EB78
:10091000810FEFD1306800F00700B8420BD9306882
:1009200020F0070038433060306800F00700B8421C
:1009300001D00120E5E72878400705D56068E9681F
:1009400020F4E060084360602878000706D56068FE
:10095000296920F4605040EAC100606000F04EF860
:100960006168F02292FAA2F201F0F001B2FA82F28A
:10097000D140074A515CC8400649086006480068F3
:10098000FFF72EFE0020BCE70020024000100240CE
:100990002C220008140000200C00002008480949FF
:1009A000006849684FF4E06292FAA2F201F4E06153
:1009B000B2FA82F2D140044A515CC840704700004C
:1009C00014000020001002403C2200080848094999
:1009D000006849684FF4605292FAA2F201F4605143
:1009E000B2FA82F2D140044A515CC840704700001C
:1009F00014000020001002403C220008164A10B5E6
:100A00005168164801F00C03042B20D0082B1ED18E
:100A10004FF4701494FAA4F401F47013B4FA84F44B
:100A2000E3400F4CD26AE45C0F2393FAA3F302F085
:100A30000F02B3FA83F3DA40094B1033C9039A5C0F
:100A400006D500231946FFF7BDFBA0FB040110BD2E
:100A50000448A4FB000110BD0010024000127A00FF
:100A60000C22000800093D002DE9F84F050071D067
:100A70002878FC4EC0074FF0010425D07068670449
:100A8000C0F38100012807D07068C0F381000228FC
:100A90001BD17068C00318D597FAA7F0B0FA80F0A0
:100AA00040F02000400901D0306800E0706A97FAF9
:100AB000A7F1B1FA81F101F01F0104FA01F1084236
:100AC00065D068680028D2D061E06868B0F5803FE2
:100AD0000BD010B1B0F5A02F17D0306820F48030C3
:100AE0003060306820F4802002E0306840F48030CC
:100AF0003060F06AA96820F00F000843F06268686F
:100B000020B3FFF74DFD80460AE0306840F48020B6
:100B10003060EAE7FFF744FDA0EB0800642871D8D5
:100B200097FAA7F0B0FA80F040F02000400901D019
:100B3000306800E0706A97FAA7F1B1FA81F101F02C
:100B40001F0104FA01F10842E4D020E0FFF728FD7C
:100B5000804607E0C2E000BFFFF722FDA0EB0800DF
:100B60006428DCD897FAA7F0B0FA80F040F02000B3
:100B7000400901D0306800E0706A97FAA7F1B1FA35
:100B800081F101F01F0104FA01F10842E4D1287853
:100B9000DFF8D48280074FF0000A4FF0020730D50B
:100BA00070684FF0F80B10F00C0F07D07068C0F3AE
:100BB0008100022827D17068C00324D497FAA7F0D7
:100BC000B0FA80F040F02000400901D0306800E029
:100BD000706A97FAA7F1B1FA81F101F01F0104FAE6
:100BE00001F1084202D02869012877D130689BFAC8
:100BF000ABF220F0F8016869B2FA82F2904001434A
:100C000031605AE064E1286988B394FAA4F0B0FA3C
:100C100080F048F82040FFF7C3FC814606E000BFA3
:100C2000FFF7BEFCA0EB090002289AD897FAA7F0BC
:100C3000B0FA80F040F02000400901D0306800E0B8
:100C4000706A97FAA7F1B1FA81F101F01F0104FA75
:100C500001F10842E4D030689BFAABF26969B2FA5C
:100C600082F220F0F80091400843306025E0FFE771
:100C700094FAA4F0B0FA80F048F820A0FFF790FCB6
:100C8000814605E0FFF78CFCA0EB09000228CCD8D8
:100C900097FAA7F0B0FA80F040F02000400901D0A8
:100CA000306800E0706A97FAA7F1B1FA81F101F0BB
:100CB0001F0104FA01F10842E4D1287800076CD53D
:100CC000A869A8B394FAA4F0B0FA80F008EB800009
:100CD000C0F88044FFF764FC814607E0A4E100BF50
:100CE000FFF75EFCA0EB090002289ED897FAA7F058
:100CF000B0FA80F040F06000B4EB501F01D13068D2
:100D00000BE097FAA7F0B0FA80F040F06000B7EB84
:100D1000501F01D1306A00E0706A97FAA7F1B1FA6A
:100D200081F101F01F0104FA01F21042D8D034E041
:100D3000FFE794FAA4F1B1FA81F108EB8101C1F85F
:100D400080A4FFF72DFC814606E000BFFFF728FCDA
:100D5000A0EB090002289AD897FAA7F0B0FA80F021
:100D600040F06000B4EB501F01D130680BE097FAFF
:100D7000A7F0B0FA80F040F06000B7EB501F01D14F
:100D8000306A00E0706A97FAA7F1B1FA81F101F0D8
:100D90001F0104FA01F21042D8D12878400768D523
:100DA000F0694FF00009C00009D4F06940F08050AC
:100DB000F061F0694FF0010900F0805000902B487D
:100DC0000168C90512D4016841F480710160FFF720
:100DD000E7FB834606E000BFFFF7E2FBA0EB0B005A
:100DE000642875D821480068C005F5D5E868012851
:100DF0000AD008B1052811D0306A20F00100306215
:100E0000306A20F0040002E0306A40F001003062F5
:100E1000E86868B3FFF7C4FB83460DE0306A40F032
:100E200004003062F0E700BFFFF7BAFBA0EB0B0154
:100E300041F2883081424BD897FAA7F0B0FA80F09F
:100E400040F04000B4EB501F01D1306813E097FA36
:100E5000A7F0B0FA80F040F04000B7EB501F09D186
:100E6000306A08E00010024000004242007000407A
:100E70000CE040E0706A97FAA7F1B1FA81F101F055
:100E80001F0104FA01F21042CED02DE0FFF788FBDB
:100E9000834607E0FFF784FBA0EB0B0141F28830AB
:100EA000814215D897FAA7F0B0FA80F040F04000E0
:100EB000B4EB501F01D130680CE097FAA7F0B0FAFC
:100EC00080F040F04000B7EB501F02D1306A01E0E3
:100ED00083E0706A97FAA7F1B1FA81F101F01F017E
:100EE00004FA01F21042D5D1B9F1000F03D0F06934
:100EF00020F08050F061E86980B37168C1F381012E
:100F0000022977D04FF080714F000228504609D057
:100F100091FAA1F1B1FA81F148F82100FFF740FB05
:100F200005465DE0894691FAA1F1B1FA81F1C24628
:100F300048F82100FFF734FB804605E0FFF730FB5F
:100F4000A0EB0800022848D897FAA7F0B0FA80F082
:100F500040F02000400902D0306801E066E0706A8D
:100F600097FAA7F1B1FA81F101F01F0104FA01F13A
:100F70000842E3D1D5E908100843716821F47411DF
:100F80000843706099FAA9F0B0FA80F04AF820405E
:100F9000FFF706FB054604E0FFF702FB401B0228B3
:100FA0001BD897FAA7F0B0FA80F040F02000400973
:100FB00001D0306800E0706A97FAA7F1B1FA81F1C8
:100FC00001F01F0104FA01F10842E5D02EE000BF54
:100FD000FFF7E6FA401B022802D90320BDE8F88F8C
:100FE00097FAA7F0B0FA80F040F02000400902D054
:100FF000306801E00BE0706A97FAA7F1B1FA81F16D
:1010000001F01F0104FA01F10842E1D10EE00128CC
:10101000E4D070682A6A00F48031914204D1696A90
:1010200000F47010884201D00120D7E70020D5E7F6
:1010300010B5401EB0F1807F01D3012010BD4FF0EC
:10104000E02460610F21601700F0E8FF0020A0613C
:1010500007202061002010BDF0B590F83C20012A47
:101060002CD0012480F83C40022280F83D20036807
:101070005A689D68124EB34203D122F470074A6841
:101080003A4322F070070A683A435A600268B24253
:1010900008D0B2F1804F05D00A4B9A4202D00A4BD9
:1010A0009A4204D1896825F080031943916080F841
:1010B0003D40002180F83C100846F0BD0220F0BD04
:1010C000002C0140000400400040014010B5040025
:1010D00003D094F83D0010B107E0012010BD0020BE
:1010E00084F83C00204600F023F8022084F83D00FC
:1010F000211D206800F0F0FB012084F8480084F8EE
:101100003E0084F83F0084F8400084F8410084F8F1
:10111000420084F8430084F8440084F8450084F8D1
:10112000460084F8470084F83D00002010BD000010
:1011300008B500680649884208D10648C16941F0EF
:101140000201C161C06900F00200009008BD00000A
:10115000000400400010024070B5044690F83C00C6
:101160000025012817D0012684F83C60022084F86D
:101170003D00226890682F4B184020F47F4090601B
:101180000868502838D00DDC20284FD005DC90B3FB
:10119000102811D14AE0022070BD302846D04028E6
:1011A0000AD13BE060282FD070280DD0B0F5805FC9
:1011B00003D0B0F5005F12D0012584F83D60002017
:1011C00084F83C00284670BDCB68D1E90121206835
:1011D00000F0C6FB2068816841F0770109E0CB6828
:1011E000D1E90121206800F0BBFB2068816841F44F
:1011F00080418160E1E719E0CA684968206800F031
:1012000009FC5021206806E0CA684968206800F09F
:1012100012FC6021206800F0ADFBCEE7CA68496887
:10122000206800F0F7FB40212068F4E722680146BF
:101230001046F0E788FFFEFF70B5044690F83C00CA
:10124000012812D0012584F83C50022084F83D008A
:10125000204600F097FB01004FF0000007D084F813
:101260003D5084F83C00012070BD022070BD216813
:10127000CA6822F04002CA602168CA6822F480422B
:10128000CA6084F83D5084F83C00002070BD70476F
:10129000704770470146806FC96F08437047000070
:1012A0002DE9F04102680446D0691168936840F660
:1012B0000F0528424FF0000505D186067ED58E0623
:1012C0007CD5616E1AE1994F03F001060F40374358
:1012D00074D0C70709D0CF0507D501271762D4F806
:1012E000802042F00102C4F8802082070AD5DA0784
:1012F00008D0276802223A62D4F8802042F0040223
:10130000C4F8802042070AD5DA0708D023680422EF
:101310001A62D4F8802042F00202C4F8802002074A
:101320000CD501F02002324308D0236808221A624B
:10133000D4F8802042F00802C4F8802002050BD5C2
:101340004A0109D523684FF400621A62D4F880205C
:1013500042F02002C4F88020D4F88020002A35D042
:10136000800605D5880603D5616E09B120468847F9
:10137000D4F8800021688968490602D410F0280F4B
:1013800026D0204600F005FC2068806840061AD56B
:101390002068083050E8001F21F0400140E80012AA
:1013A000002AF5D1206F70B161494163206FFEF7CB
:1013B000BBFF00280AD0206F416B01E00EE0204601
:1013C000BDE8F04108472046FFF763FFBDE8F08124
:1013D0002046FFF75EFFC4F88050F7E7276E20260F
:1013E000012F7AD1C70678D5CF0676D510201062A6
:1013F00020688068400640D5216F08684068000476
:10140000000CE3D0B4F858208242DFD9A4F85A0087
:10141000886920282AD0216851E8000F20F48070C4
:1014200041E80002002AF6D12068083050E8001F89
:1014300021F0010140E80012002AF5D120680830AF
:1014400050E8001F21F0400140E80012002AF5D1C9
:10145000E6672566216851E8000F20F0100041E89A
:101460000002002AF6D1206FFEF73BFFB4F85800C7
:10147000B4F85A10401A81B22AE0B4F85800B4F80F
:101480005A10401A81B2B4F85A0000289ED00029A0
:101490009CD0226852E8000F20F4907042E80003CC
:1014A000002BF6D12068083050E8002F22F001020E
:1014B00040E80023002BF5D1E667256665662268C3
:1014C00052E8000F20F0100042E80003002BF6D194
:1014D0002046FFF7DCFE79E7FFE7C70209D55B028C
:1014E00007D54FF4801010622046BDE8F041FFF7A9
:1014F000CFBE020606D50A0604D5A16E00297FF4E8
:101500005EAF63E74006E6D54806E4D520460168AD
:1015100051E8002F22F0400241E80023002BF6D1D1
:101520008667856600F0F5F850E7000020010004AA
:101530007F1B000810B5040002D0A06F10B107E0B7
:10154000012010BD002084F87400204600F026F829
:101550002420A0672068016821F001010160204675
:1015600000F0DAFB0128ECD0606A10B1204600F0F0
:1015700074FA2068416821F49041416020688168D4
:1015800021F02A0181602068016841F001010160B9
:101590002046BDE8104000F0C4BA000010B586B087
:1015A000044614216846FEF755FE16492068884215
:1015B00026D11548816941F480418161816901F436
:1015C00080410591416941F480214161406969464A
:1015D00000F480200590C02000900220019000209F
:1015E000029003200390072004900848FEF7C2FEF3
:1015F000002201212520FFF737F82520FFF726F8E4
:1016000006B010BD00380140001002400004004840
:1016100030B4C36F202B1DD1C9B1C2B190F8743062
:10162000012B17D0012380F8743000230366036870
:101630005B681B0208D5046854E8003F43F08063F0
:1016400044E80035002DF6D130BC00F007BC012085
:1016500030BC70470220FBE7704700002DE9F843DB
:101660000446806F1F4616460D4620284FD1CDB147
:10167000C6B194F87400012849D0012084F87400A0
:101680004FF00008C4F880802120A067FEF788FF93
:10169000A4F850608146A4F85260A068B0F5805F5D
:1016A00003D004E00120BDE8F883206928B12E466C
:1016B0005FF0000584F8748010E00026FAE78021CE
:1016C000204600F01BFCB8B9C6B116F8010B216822
:1016D0000885B4F85200401EA4F85200B4F8520035
:1016E0004B464FF0000200970028E8D14FF0400130
:1016F000204600F003FC30B10320D4E735F8020B9C
:10170000C0F30800E3E72020A0670020CBE7022019
:10171000C9E77047FEE7000030B587B0142168467E
:10172000FEF798FD1648416941F480214161416905
:1017300001F480210591416941F400314161406922
:10174000104D00F400300590002207212846FEF7D6
:1017500021FF07200124CDE900040320CDE9024048
:1017600069462846FEF706FE182000900020CDE9C5
:10177000010469462846FEF7FDFD07B030BD0000B4
:10178000001002400004004810B58CB000240594FD
:1017900006940794142168460894FEF75BFD1A48E6
:1017A00009940A9417490B9401602021C0E901149F
:1017B00042F21071C0E903148461FFF787FC08B19D
:1017C000FEF78DFD4FF48050059005A90E48FFF7F8
:1017D000C3FC08B1FEF783FD009469460A480194F2
:1017E000FFF72AFD08B1FEF77AFD099409A906481A
:1017F0000B94FFF731FC002801D0FEF770FD0CB010
:1018000010BD000000040040180000200D4810B575
:101810000B4901604FF4E1314160002181600C22ED
:10182000C160C0E904128161C16101624162FFF7D8
:1018300081FE002803D0BDE81040FEF750BD10BD6A
:101840000038014064000020FEE7FEE77047704763
:10185000FEF7ACBE70B596B028216846FEF7FAFCDC
:1018600014210AA8FEF7F6FC1C210FA8FEF7F2FCD3
:101870000225012610200095CDE9046000244FF4D4
:101880006010CDE9084007956846FFF7EDF808B10C
:1018900072B6FEE70F20CDE90A054FF48060CDE96E
:1018A0000C4002210AA80E94FEF7D4FF08B172B6CC
:1018B000FEE70FA80F961194FEF708FF002801D04D
:1018C00072B6FEE716B070BD0248016841F47001BF
:1018D0000160704788ED00E0F0B502681B4B1C4FBB
:1018E0004FF0804C984203D0604501D0B84203D1FC
:1018F00022F070044A682243164C174D174E984246
:1019000009D0604507D0B84205D0A04203D0A84214
:1019100001D0B04203D122F44077CA683A434F69FC
:1019200022F080023A4302608A68C2620A688262D8
:10193000984205D0A04203D0A84201D0B04201D1C4
:101940000969016301214161F0BD0000002C0140E3
:1019500000040040004001400044014000480140B4
:1019600010B5846842EA032224F47F440A432243E8
:10197000826010BD826822F070020A4342F00701C3
:101980008160704770B505680024AA6822F0700372
:101990004A681A431E4B1A400B681343AB604A68EF
:1019A00012F00F0F31D11211082A2ED2DFE802F007
:1019B0002E2E2E2E0B2127040B69D1E9022100685F
:1019C000FFF7CEFF22E00A68052A10D00268136AEA
:1019D000156A25F00105156202689569096925F007
:1019E000F00545EA01119161006803620EE00120F3
:1019F00070BD0A698968006800F00CF806E00A69A1
:101A00008968006800F017F800E00124204670BDE6
:101A1000F8FFFEFF10B5036A046A24F001040462B3
:101A2000846924F0F00444EA021423F00A020A4311
:101A30008461026210BD10B5036A23F010030362D3
:101A40008369046A23F4704343EA023224F0A0035A
:101A500043EA01118261016210BD90F82410C907A8
:101A600006D001684A68836A22F400321A434A6049
:101A700090F82410890706D501684A68C36A22F4E1
:101A800080321A434A6090F82410490706D501684D
:101A90004A68036B22F480221A434A6090F82410AB
:101AA000090706D501684A68436B22F400421A43CD
:101AB0004A6090F82410C90606D501688A68836BCD
:101AC00022F480521A438A6090F82410890606D5C1
:101AD00001688A68C36B22F400521A438A6090F846
:101AE0002410490611D501684A68036C22F480125B
:101AF0001A434A60016CB1F5801F06D101684A683B
:101B0000436C22F4C0021A434A6090F8241009067C
:101B100006D501684A68806C22F4002202434A60BC
:101B20007047F8B500260446C0F88060FEF738FD1F
:101B30000546206800686FF07E47000708D52B46F1
:101B400000224FF400112046009700F0D7F960B949
:101B50002068006840070AD52B4600224FF4800118
:101B60002046009700F0CAF908B10320F8BD2020F4
:101B7000A067E067266684F874600020F8BD10B5A1
:101B8000406A0021A0F85A10A0F85210FFF781FB1C
:101B900010BD016851E8002F22F4907241E8002343
:101BA000002BF6D10168083151E8002F22F0010224
:101BB00041E80023002BF5D1016E012908D102680C
:101BC00052E8001F21F0100142E80013002BF6D16B
:101BD0002021C167002101664166704710B5B0F849
:101BE0005C20C36F0168222B04D0886940F0080094
:101BF000886110BD898C436D11401980416D891C2D
:101C00004165B0F85A10491EA0F85A10B0F85A10A1
:101C10000029EED1026852E8001F21F4907142E8D9
:101C20000013002BF6D10168083151E8002F22F093
:101C3000010241E80023002BF5D12021C1670021DA
:101C40004166026E012A02D0FFF706FD10BD016653
:101C5000026852E8001F21F0100142E80013002B37
:101C6000F6D10168CA69D243D20601D410220A62B1
:101C7000B0F85810FFF70BFB10BD10B5B0F85C20A2
:101C8000C36F0168222B04D0886940F00800886186
:101C900010BD898C1140426D1170416D491C416528
:101CA000B0F85A10491EA0F85A10B0F85A1000297E
:101CB000EED1026852E8001F21F4907142E800134F
:101CC000002BF6D10168083151E8002F22F0010203
:101CD00041E80023002BF5D12021C1670021416696
:101CE000026E012A02D0FFF7B7FC10BD0166026840
:101CF00052E8001F21F0100142E80013002BF6D13A
:101D00000168CA69D243D20601D410220A62B0F82F
:101D10005810FFF7BCFA10BD70B504468068216901
:101D2000E26908436169002511432268084311688C
:101D3000444B19400143116020684168E26821F476
:101D4000405111434160A169206A084321688A68B3
:101D500022F4306202438A603B492068884210D1F5
:101D60003A48006B10F0030011D0012805D002287A
:101D700005D003280DD102210CE004210AE008213E
:101D800008E03349884202D03249884201D100211B
:101D900000E01021E3694FF400422F484FF6EF7640
:101DA000934227D1092941D2DFE801F005080E400E
:101DB0000B4040402200FEF7F1FD04E0FEF706FE76
:101DC00001E0FEF71BFE90B34100606801EB50019B
:101DD000B1FBF0F080B2A0F11001B14226D84FF66D
:101DE000F0710140C0F3420001432068C16023E06C
:101DF0001046E9E7092919D2DFE801F005080E18B5
:101E00000B1818181A00FEF7C9FD04E0FEF7DEFDF6
:101E100001E0FEF7F3FD50B1616800EB5100B0FB4B
:101E2000F1F080B2A0F11001B14203D9012503E025
:101E30001046F1E72168C86000206066A066284669
:101E400070BD0000F369FFEF003801400010024050
:101E5000004400400048004000127A0030B541655F
:101E6000A0F85820A0F85A200021416682684FF45B
:101E70008055FF23AA4204D102696ABB40F2FF12D7
:101E800030E07F2432B3B2F1805F28D0A0F85C103C
:101E9000C0F880102222C2670268083252E8003F70
:101EA00043F0010342E80034002CF5D18268AA42D5
:101EB00001D10269E2B10F4A426680F874100268EB
:101EC00052E8001F41F4907142E80013002BF6D154
:101ED000002030BD026942B9A0F85C30D8E7026941
:101EE0001AB13F22A0F85C20D2E7A0F85C40CFE70F
:101EF000014AE1E77B1C0008DD1B00082DE9F047E3
:101F00009A4617460E4604464FF000094FF0200847
:101F1000089D4AE0681C48D0FEF742FBA0EB0A008F
:101F2000A8422AD84DB32068016849073DD5C06949
:101F3000C043000539D421684FF40060086220686E
:101F400050E8001F21F4D07140E80012002AF6D1B9
:101F50002068083050E8001F21F0010140E800121D
:101F6000002AF5D1C4F87880C4F87C80C4F8808059
:101F700084F874900320BDE8F087216851E8000FD1
:101F800020F4D07041E80002002AF6D12068083021
:101F900050E8001F21F0010140E80012002AF5D1AD
:101FA000C4F87880C4F87C80E2E72068C06936EA2B
:101FB000000004D00020B842ACD00020DBE70120B4
:101FC000F9E7000010B50A48FFF76AF9FEF770F963
:101FD0000748FFF765F90648FFF75CF92028FAD1B2
:101FE000012204490248FFF713FB0028F8D110BD75
:101FF0006400002004000020FEE700000FB4054B41
:1020000010B503A9044A029800F027F810BC5DF847
:1020100014FB000031210008000000200907090E10
:10202000002804DB00F1E02080F80014704700F085
:102030000F0000F1E02080F8141D704702E008C88E
:10204000121F08C1002AFAD170477047002001E032
:1020500001C1121F002AFBD170472DE9F84F9946A4
:10206000924688460546002706E025280AD05146B4
:102070004A4690476D1C7F1C28780028F5D13846C9
:10208000BDE8F88F002315F8011F18462E2915D139
:1020900015F8011F04232A290DD06FF02F0229788B
:1020A000A1F13004092C09D800EB800002EB4000BC
:1020B00008446D1CF3E758F8040B6D1C2A78002ABD
:1020C000DDD0632A07D0732A0FD0104651464A4606
:1020D00090477F1C2AE018F8042B8DF8002000217F
:1020E0008DF801106E46012103E058F8046B4FF0A3
:1020F000FF315A074FF0000401D409E0641C844208
:102100000BDA8C42FADB325D002AF7D105E0641C61
:102110008C42FCDB305D0028F9D1274404E016F83E
:10212000010B51464A469047641EF8D26D1CA3E746
:1021300004490A685206FCD5024AC1B20C32118029
:10214000704700001C380140FEF738FAFFF782FBA9
:10215000FFF7E2FAFFF718FBFFF758FB01221649D9
:102160001648FFF755FA002415A118A0FFF746FFFF
:102170001AA0FFF743FF114F1B4E4FF6FF784FF4A5
:102180007A7AA146641CA4B24445FBD1307800247D
:1021900010F0FF0502D015A0FFF730FF53462A4686
:1021A00019490648FFF75AFA3868C169C943490610
:1021B000FBD4A6F80090E5E70400002064000020AE
:1021C0006D63756C6F7665723636360048656C6C7B
:1021D0006F2C206920616D2025730A0049276D202E
:1021E000776F726B696E6700060000205468652087
:1021F0007468696E677320796F75206761766520F2
:102200006D653A0A00000000E800002002030405A2
:10221000060708090A0B0C0D0E0F1010010203042B
:1022200005060708090A0B0C0D0E0F100000000030
:102230000000000001020304060708090000000076
:1022400001020304642200080000002018000000BE
:102250003C2000087C22000818000020980500009F
:102260004C200008000000000000000001000000F9
:0C227000100000000000000000127A00C6
:040000050800018965
:00000001FF
