:020000040800F2
:10000000D009002029020008933C0008E7340008CA
:10001000913C0008A1080008094C000800000000FD
:100020000000000000000000000000002F41000858
:10003000E10A0008000000002D410008A14400086A
:10004000430200084302000843020008430200087C
:10005000430200084302000843020008430200086C
:10006000430200084302000843020008430200085C
:10007000430200084302000843020008430200084C
:10008000430200084302000843020008430200083C
:10009000430200084302000843020008430200082C
:1000A000430200084302000843020008430200081C
:1000B0004302000835450008000000004302000824
:1000C0004302000800000000000000004302000896
:1000D00000000000D54B000843020008430200085E
:1000E0004302000843020008000000000000000076
:1000F0000000000000000000000000000000000000
:1001000000000000000000000000000000000000EF
:100110000000000000000000430200084302000845
:1001200000000000000000000000000000000000CF
:1001300000000000000000000000000000000000BF
:1001400043020008430200080000000043020008C8
:10015000B1040008430200084302000843020008FB
:1001600043020008430200080000000000000000F5
:10017000000000000000000000000000000000007F
:10018000000000004302000800F002F800F03CF814
:100190000AA090E8000C82448344AAF10107DA45E2
:1001A00001D100F031F8AFF2090EBAE80F0013F0F8
:1001B000010F18BFFB1A43F001031847F055000068
:1001C00010560000103A24BF78C878C1FAD85207F8
:1001D00024BF30C830C144BF04680C6070470000C1
:1001E0000023002400250026103A28BF78C1FBD840
:1001F000520728BF30C148BF0B6070471FB504F0DD
:10020000A7FE1FBD10B510BD00F00CF91146FFF799
:10021000F5FF04F037FE00F03EF903B4FFF7F2FFFC
:1002200003BC04F021FE000009488047094800474C
:10023000FEE7FEE7FEE7FEE7FEE7FEE7FEE7FEE796
:10024000FEE7FEE704480549054A064B70470000F3
:100250002545000889010008D0030020D0090020AE
:10026000D0050020D0050020704753EA020C00F0B2
:1002700069802DE9F04B4FF00006002B1FBFB3FA49
:1002800083F503FA05F424FA05F65E4012BF16431F
:10029000B2FA82F502FA05F4C5F120051EBF22FA72
:1002A00005FC44EA0C04203556EA044C4FEA144499
:1002B00018BF641C4FF000084FF00009904271EB2A
:1002C000030C39D3002919BFB1FA81F701FA07F6F7
:1002D000B0FA80F700FA07F6C7F120071EBF20FA30
:1002E00007FC46EA0C062037B6FBF4FCA7EB050733
:1002F000103F07F01F0BCBF120060CFA0BFB2CFA7A
:1003000006F644BFB3460026202FA4BF5E464FF03A
:10031000000B5BEA060C08BF4FF0010B19EB0B0951
:10032000ABFB027C48EB0608C01B06FB02CC0BFBB8
:1003300003CC71EB0C01C1E70B460246414648462F
:10034000BDE8F08B13B54FF000004FF00001AFF3A4
:100350000080BDE81C4070470FB4044910B503AAE3
:10036000029800F031F810BC5DF814FB0400002086
:100370004FF0000200B5134694469646203922BF3E
:10038000A0E80C50A0E80C50B1F12001BFF4F7AF89
:10039000090728BFA0E80C5048BF0CC05DF804EB6B
:1003A000890028BF40F8042B08BF704748BF20F8D9
:1003B000022B11F0804F18BF00F8012B70477047D7
:1003C0007047704770470000074B70B50D467B447F
:1003D00000F011F80446284600F020F810B14FF064
:1003E000FF3070BD204670BD9B4A000001694A1C69
:1003F00002610878704700B58FB0CDE90131002166
:10040000059105497944CDE903101146684600F08D
:100410002EF80FB000BD0000E5FFFFFF007B00F0ED
:1004200080007047754600F03FF8AE46050069460B
:10043000534620F00700854618B020B5FFF702FFAD
:10044000BDE820404FF000064FF000074FF00008D5
:100450004FF0000B21F00701AC46ACE8C009ACE856
:10046000C009ACE8C009ACE8C0098D4670472DE969
:10047000F04106460024D6E90170F5688046304612
:1004800003E04146B847641C3046A8470028F8D12D
:100490002046BDE8F08110B50446AFF30080204649
:1004A000BDE81040FFF7B9BE004870476C0300205C
:1004B00002491020086000F003B800008874014071
:1004C000F0B5564840F6E471808848433B2101EB83
:1004D000103053490A68121A52481E2A026001DD80
:1004E0001E220260504B00229C7A0CB102619A726B
:1004F0009D7950244DB1012D0DD0494A022DB2F9FC
:100500000E202FD0032D6BD147E002604260826045
:10051000C260026164E0026841F2534506695543D6
:10052000AF19424E456840F2ED4C6E4307EB46076B
:10053000866806FB0CF607EB8606071D87E8640055
:10054000066146F30F20088240F21B124A82B1F97D
:100550000C20904200DD0A82B1F9100050283FDAE9
:100560000C823DE0066840F6A7050769754307EB76
:10057000850C2F4D476840F6630E07FB05CC856858
:10058000466005FB0EF50CEB8505C0E902750561BB
:1005900040F6E16019E04A821DE0066840F6A705D2
:1005A0000769754307EB850C214D476840F6630EDC
:1005B00007FB05CC8568466005FB0EF50CEB850551
:1005C000C0E90275056140F6CD40088245F30F2071
:1005D00048829042DFDCB1F91200502800DA4C82E8
:1005E000D87900B90C82B1F9100000EB800040F31B
:1005F00053021048026000680E4A40080C32106036
:10060000B1F912004FF4205100EB8000C002A1EBC1
:100610002030084980310860F0BD000064000020EF
:10062000A4000020080000205C030020FDEBFFFF79
:10063000DBBBFFFF9C74014030B52849088800EB04
:10064000800202EB0030312202EB103501F118007C
:1006500005624A88C369D21A42F3130444618A8846
:1006600040F6E4735A433B2303EB1232C260C9885D
:100670008368C91A41F3130300210360642D00DA73
:100680000162002C00DA4161642A00DAC160002BAB
:1006900000DA01601149036A4839CA6A1344A3EBBE
:1006A0009202CA629208426243690A6B1344A3EB46
:1006B00092020A6392088261C3684A6B1344A3EBF7
:1006C00092024A639208026103688A6B1344A3EBA7
:1006D00092028A639108416030BD000064000020EE
:1006E0000146406A026C12F0500F03D0806B026B1F
:1006F00008461047016C41F4007101640168C96843
:1007000011F4406F0CD1417E51B9016C21F480711C
:100710000164016CC90403D4016C41F0010101645E
:1007200000F0FABB406A016C41F040010164416C89
:1007300041F00401416400F0F1BB406A00F0EDBB00
:1007400070B504460068816801F00301012926D1D3
:100750000168C90723D0816801F00D01012910D17A
:10076000816841F00201816021680320086000F087
:100770002DFF05460FE000BF00F028FF401B0228B8
:1007800009D9206C40F010002064606C40F001003A
:100790006064012070BD20688068C007ECD1002033
:1007A00070BD000070B504460068816801F0030167
:1007B000012902D10168C90720D18168104A11427C
:1007C0000DD1816841F00101816000F0FFFE054616
:1007D0000FE000BF00F0FAFE401B022809D9206C90
:1007E00040F010002064606C40F001006064012063
:1007F00070BD20680068C043C007EBD1002070BD09
:100800003F000080F0B5254840F6CD422249406ABD
:10081000022700FB02F341F2333200FB02F41F4ACD
:100820008D7928324FF0030C1268012635B1012D65
:100830000BD0022D13D0032D26D11CE0B2EB233FA9
:100840001CDBB2EB243F1EDC12E0B2EB243F1ADCCF
:1008500040F69A535843B2EB203F09DC14E0B2EB68
:10086000233F0BDB41F266235843B2EB203F0BDA08
:1008700081F806C008E0B2EB233F01DA8E7103E095
:10088000B2EB243F00DD8F718879A84202D10020AD
:100890008872F0BD8E72F0BD5C0300207C000020E9
:1008A000FEE70000054A016811441422B1FBF2F191
:1008B000890001640249C16370470000F8FFFDBF71
:1008C0000000024030B590F840500124AC40C56BA8
:1008D0006C60046863604368102B036803D0996000
:1008E0000068C26030BD9A600068C16030BD000021
:1008F0002DE9F05F6A4E4FF00009A6F150073078FD
:10090000612828D1F0796228FBD1664C96F801C0A5
:1009100001222188644D06F108004FF47A73BCF17E
:10092000650F58D0BCF1730F06D0BCF1740F13D013
:10093000BCF1760F0FD174E001290CD17321017045
:10094000574901220831584802F03CFC2868C16927
:10095000C9434906FBD49DE05149E272924696F89C
:100960000280B1F803C04A7989794FF0630BB8F17E
:10097000630F19D0B8F1760F15D184F80C909CFA5A
:100980009CF4240444EA02220A437A62444980F82F
:1009900000B001220831444802F014FC2868C16903
:1009A000C9434906FBD475E084F80CA09CFA9CF47A
:1009B000240444EA02220A43BA62394980F800B0AA
:1009C00001220831384802F0FDFB2868C169C9439B
:1009D0004906FBD45EE094F80BC0BCF1010F59D17D
:1009E000022901D0032955D1228084F80B9065217A
:1009F000C7F8249001702A49012208312A4802F0E0
:100A0000E1FB2868C169C9434906FBD484F8079013
:100A10000321264801F0A9F80C21244801F0A5F88B
:100A200038E01F4ADFED220A10329FED231A92EDC3
:100A3000040AB8EEC00A20EE200ADFED1E0A20EEFE
:100A4000200ABCEEC00A10EE101A92ED010A0170E5
:100A50000C0AB8EEC00A44700C0C847020EE010A37
:100A6000090EC17020EE200ABCEEC00A10EE102A5A
:100A70000271110A4171110C8171110EC171084985
:100A800008220831084802F09DFB2868C169C94363
:100A90004906FBD4A7F8049062203070BDE8F09FAF
:100AA0006C0000205C030020D802002064010020BC
:100AB00000D084470000803900E0AB460748811E23
:100AC000027800F14E0388881A54401C80B2888056
:100AD000072801D900208880704700001E000020F0
:100AE000704772B6FEE7000070B5026800234FF051
:100AF000A04494B0A24200D1314C009490F83C4004
:100B0000012C1FD0012480F83C40926852074CD43D
:100B1000009A9268520748D42A4A0D6840F61F741A
:100B200045B3956890F8306025F4604545EA463550
:100B30004E68354395600568AE6806F00306012EE1
:100B400006D102E0022014B070BD2D68ED0731D14E
:100B5000009DAD6805F00305012D03D1009D2D68B2
:100B6000ED0727D10D6889680D439168A1430D43B6
:100B700095601FE0916821F46041916001688D6883
:100B800005F00305012D02D10968C90712D10099AA
:100B9000896801F00301012903D100990968C90797
:100BA00008D19168A143916004E0016C41F02001FB
:100BB00001640123002180F83C101846C3E70000BF
:100BC0000001005000030050F0B594B000250095DE
:100BD00090F83C202E46012A19D0012780F83C705D
:100BE00003689A6852077CD44A681F24052A11D2E8
:100BF000D3F830C002EB4202520094402CEA040CBD
:100C00000C6894404CEA040CC3F830C035E0022074
:100C100014B0F0BD0A2A0FD2D3F834C0521F02EB31
:100C20004202520094402CEA040C0C6894404CEAB6
:100C3000040CC3F834C020E00F2A0FD2D3F838C018
:100C40000A3A02EB4202520094402CEA040C0C686F
:100C500094404CEA040CC3F838C00EE0D3F83CC012
:100C60000F3A02EB4202520094402CEA040C0C684A
:100C700094404CEA040CC3F83CC00268936813F03B
:100C80000C0F4FF0070374D1D1F800E0BEF10A0F4A
:100C900010D39469AEF10A0E0EEB4E0C03FA0CFE63
:100CA00024EA0E04D1F808E00EFA0CFE44EA0E0421
:100CB00094610FE0D2F814C00EEB4E0403FA04FE68
:100CC0002CEA0E0CD1F808E00EFA04FE4CEA0E0CE9
:100CD000C2F814C002684C69D2F80CC0CCF3C10C45
:100CE00000E0E1E04FEA4C0C04FA0CF4D1F810E01B
:100CF000DFF810C2BEF1010F42D0BEF1020F4DD09D
:100D0000BEF1030F58D0BEF1040F63D0146E91F8FA
:100D100000C004F0F844B4EB8C6F03D1146E24F0DF
:100D2000004414660268546E91F800C004F0F84460
:100D3000B4EB8C6F03D1546E24F000445466026807
:100D4000946E91F800C004F0F844B4EB8C6F03D1BA
:100D5000946E24F0004494660268D46E91F800C04A
:100D600004F0F844B4EB8C6F03D1D46E24F000444B
:100D7000D4660268946804F00304012C3AD136E08A
:100D8000D2F860E00EEA0C0E91F800C044EA8C64E0
:100D90004EEA040E4EF000441466EAE7D2F864E02E
:100DA0000EEA0C0E91F800C044EA8C644EEA040E80
:100DB0004EF000445466DCE7D2F868E00EEA0C0E10
:100DC00091F800C044EA8C644EEA040E4EF00044F0
:100DD0009466CEE7D2F86CE00EEA0C0E91F800C0F3
:100DE00044EA8C644EEA040E4EF00044C0E71468F6
:100DF000E4075ED1CC68012C06D052F8B03F0C78E5
:100E0000A740BB43136020E052F8B04F91F800C0F8
:100E100007FA0CF73C4314600A6804680A2A0AD3EC
:100E2000A769093A02EB420293409F438B689340C3
:100E30001F43A76109E06769521C02EB420293401D
:100E40009F438B6893401F43676109682E4A1029AE
:100E500004D0112905D0122906D02AE093681B027C
:100E600004E09368DB0101E093685B02002B20DB68
:100E700003684FF0A044A34202D1244F009700E042
:100E800000949F6807F00307012F02D11F68FF0736
:100E90000AD1009F8FB1BF6807F00307012F0CD163
:100EA000009F3F68FF0708D0016C41F020010164FA
:100EB000012580F83C602846AAE6102908D01129AF
:100EC0001AD01229F5D1916841F480019160F0E7C0
:100ED000A342EED1916841F4000191600C490D4AA2
:100EE0000968B1FBF2F101EB8101490000E0491E04
:100EF00000910029FBD1DCE7A342DAD1916841F0EF
:100F00008071E3E700F0FF83000300500001005010
:100F1000CC00002040420F0070477047704700002F
:100F2000F0B54FF0000595B004002F462E46009511
:100F300005D0206CC00648D4206C18B133E00120E5
:100F400015B0F0BD6664E664A66484F83C60204693
:100F500000F0D8F820688068C00024D42046FFF74D
:100F6000EFFB0546206CC0061DD4E5B9206C20F4CB
:100F7000885040F0020020642068816821F04051D0
:100F800081602068816841F08051816057485849EC
:100F90000068B0FBF1F000EB8000400000E0401E74
:100FA00000900028FBD120688168C90002D58068C4
:100FB00080000AD5206C20F0020040F01000206470
:100FC000606C40F0010060640125206CC0067DD497
:100FD000002D7BD12068816849077ED4216C21F4E3
:100FE000807141F00201216442494FF0A0429042D9
:100FF00000D1414A0092826802F00302012A02D124
:101000000068C00710D1009840B1806800F003006C
:10101000012803D100980068C00705D1886862687C
:1010200020F4403010438860D4E902100843616B1B
:10103000012902D04FF4805200E00022617E42EA92
:101040004132104394F820203843012A0AD1A9B133
:10105000216C21F0020141F020012164616C41F01A
:1010600001016164A16A012902D0E26A11430843C7
:1010700021688A6812F00C0F08D013E0A18C1F4A77
:1010800002EB4141014341F48030EBE7CA6844F28E
:1010900002039A43CA60217E94F83020890341EA12
:1010A000420108432168CA68154B1A400243CA60CE
:1010B000206901282068016B21F00F0102D1E2694B
:1010C000521E114301636664206C00E005E020F0CD
:1010D000020040F00100206406E0206C20F00200D5
:1010E00040F0100020640125284629E7CC000020AC
:1010F00040420F0000030050000100500000FEFFBE
:1011000007C0F0FF70B586B0054614216846FFF7AA
:101110002FF92868B0F1A04F38D11D490868401C4C
:1011200008601C49012807D1486940F08050486197
:10113000486900F080500590486940F400304861EB
:101140004869002600F4003005900F20009003202D
:10115000CDE9010669464FF0904000F05FF90F4C71
:101160000D48C4E900068020C4E902604000206107
:10117000800060612020A0610002E061204600F054
:10118000DBF808B1FFF7ADFCAC63656206B070BD7B
:101190000000002000100240080002402001002052
:1011A0002DE9F0470446006890468946806840076C
:1011B0006ED494F83C0001280CD001204FF0A046DA
:1011C00084F83C00D6F808034FF00007C00604D0AE
:1011D000012507E00220BDE8F0872046FFF7E2FA8C
:1011E000050002D084F83C7053E0206C40F60161A9
:1011F000884340F480702064D6F80803C00602D00B
:101200002068B04206D1206C20F480102064206851
:10121000C06807E0216C41F4801121641E498842B6
:1012200008D1F068800105D5206C20F4005040F40E
:1012300080502064206CC00404D5606C20F006004F
:10124000606400E0676484F83C70A16B13488862B6
:10125000A16B1348C862A16B1248086321681C2067
:1012600008602068416841F0100141602068C16851
:1012700041F00101C160216843464A464031A06BFC
:1012800000F081F82068816841F00401816000E08D
:10129000022528469FE7000000010050E1060008F3
:1012A0003B0700082507000810B590F82110002220
:1012B000022905D00421816380F82020012010BD7F
:1012C00001680B6823F00E030B6001680B6823F0C4
:1012D00001030B6090F84030C46B012101FA03F365
:1012E000636080F8211080F82020002010BD10B528
:1012F00090F821100024022903D0042181630124E5
:1013000018E001680A6822F00E020A6001680A68A3
:1013100022F001020A6090F84020C36B012101FA1B
:1013200002F25A6080F82110002180F82010416BF1
:1013300001B18847204610BD70B5040021D00220BD
:1013400084F821002268116843F6F0708143D4E9E3
:1013500001031843D4E903352B4318436369184349
:10136000A3691843E3691843084310602046FFF758
:1013700099FA0020A063012184F8211084F820004C
:1013800070BD012070BD70B5044690F820000025A6
:1013900001280CD0012084F8200094F8216000205E
:1013A000012E06D084F820000225284670BD0220B8
:1013B00070BD022684F82160A0632068066826F0CC
:1013C000010606602046FFF77DFAE06A00282068E3
:1013D000016802D041F00E0106E041F00A0101600F
:1013E0002068016821F0040101602068016841F073
:1013F00001010160D9E7000070B5044600F0E6F88D
:101400000546601C02D004480078044400F0DEF871
:10141000401BA042FAD370BDC00000202DE9FC4F54
:10142000DFF884A1002301250AF1040B03244FF007
:101430000F0C0BF1040EB0E005FA03F73A406ED042
:101440004E68012E05D0022E03D0112E01D0122E8F
:1014500017D1D0F808905E0004FA06F829EA0809C6
:101460000096D1F80C8008FA06F848EA0908C0F896
:1014700008804668BE430F79C7F300179F40374383
:101480004760C6684FEA430804FA08F7BE4301976D
:101490008F6807FA08F73743C7604E68022E01D0FD
:1014A000122E10D1DE0800EB86060096366A5F0722
:1014B0004FEAD7690CFA09F7BE430F6907FA09F733
:1014C0003743009E37620668019FBE430F7907F0DD
:1014D000030707FA08F7374307604E68F6005BD545
:1014E000324EB76947F00107B761B66923F00307C9
:1014F00006F0010600962E4E3E44B146B6689F07A0
:101500004FEA17780CFA08F7BE43B0F1904F04D0B9
:10151000284FB84204D101270DE000270BE03BE043
:10152000254FB84201D1022705E0244FB84201D12E
:10153000032700E0052707FA08F73743C9F80870C2
:10154000DAF800605746D1F8048096435FEAC8385D
:1015500000D516433E60DBF800605F46D1F804809A
:1015600096435FEA883800D516433E60DEF8006097
:101570007746D1F8048096435FEAC82800D5164321
:101580003E60094F0C373E68D1F8048096435FEA0D
:10159000882800D516433E605B1C0E683246DE404C
:1015A0007FF44AAFBDE8FC8F000401400010024008
:1015B000000001400004004800080048000C0048FA
:1015C0000AB18161704781627047000001488068FC
:1015D00070470000C0000020F0B590F8C130022B29
:1015E00027D090F8C030012B23D0012580F8C050BF
:1015F000022380F8C1300468D4F880330026012922
:1016000019D0022921D004292BD0082935D007214F
:1016100080F8C11080F8C06090F8C110072938D058
:101620000168C1F8803380F8C15080F8C0600020A4
:10163000F0BD0220F0BD23F4E021136803F4E023A1
:101640000B435168C4F8BC13E6E723F46011136838
:101650004FF4601707EAC3030B435168C4F8C01383
:10166000DAE723F0E07113684FF0E07707EA8313BD
:101670000B435168C4F8C413CEE723F060611368CC
:101680004FF0606707EA43230B435168C4F8C8135F
:10169000C2E70120F0BD10B590F8C020012A21D08A
:1016A000012280F8C020022380F8C1304B1C1BD0DF
:1016B0000368D3F8CC4344F00204C3F8CC43036876
:1016C000D3F8CC4324F00C040C43C3F8CC4301689A
:1016D000D1F8CC3343F00103C1F8CC3380F8C120FA
:1016E000002010BD022010BD0168D1F8CC3323F0DA
:1016F0000203C1F8CC33EAE770B590F8C130022B91
:101700003CD090F8C030012B38D0012500F8C05FE4
:10171000022343701388948803F4E053C4F308044D
:101720001C4313896FF07E4603F400732343148A2D
:1017300004F480441C43938903F400432343948AB4
:1017400006EA04441C43936903F000732343146ABC
:10175000D26904F080441C4302F00042224350F856
:10176000C03CB82404EBC1141959054E3140114353
:101770001951457000210170084670BD022070BDEE
:101780000020003C38B5040054D0022084F8C10089
:101790000025C4F8C450C4F8C850C4F8CC50C4F8EC
:1017A000D050C4F8D450C4F8D850207AC0071BD009
:1017B00021492068884208D12048816941F00051C0
:1017C0008161806900F0005000902168086820F471
:1017D0004042208A00F44040104320F44052A08A46
:1017E00000F4405010430860204600F029F8207AA9
:1017F000800708D52168086820F44072A08900F4A9
:10180000407010430860012084F8C10084F8C05083
:101810005FF00001C1EBC10004EB8000491C856151
:10182000C561056245628562C9B205630529F1D9C2
:10183000002038BD012038BD007401400010024076
:1018400008B500680B49884212D10B48816941F004
:10185000005181618069002200F000500090012158
:10186000442000F0E5FBBDE80840442000F0D2BB76
:1018700008BD00000074014000100240F0B587B0C0
:10188000044614216846FEF773FD15492068884216
:1018900024D11448416941F4003141614069022476
:1018A00000F4003005904FF44070CDE9000402AA26
:1018B000012003250D2682E861004FF0904769461C
:1018C0003846FFF7ABFDA802CDE9000402AA0020CC
:1018D00082E8610069463846FFF7A0FD07B0F0BD19
:1018E000007401400010024070B50D460446FFF739
:1018F0006DFE064607E0681C05D0FFF767FE801BFB
:10190000A8420DD865B12068D0F88803C043C00351
:10191000F1D4012084F8C100002084F8C00070BD1B
:10192000072084F8C100032070BD70B590F8C13065
:10193000022B23D0022380F8C130052920D0802338
:10194000046803EBC115635923F00706936833431A
:1019500023F01806D368334363519425046805EBDC
:10196000C115136863519824036804EBC1115268D0
:101970005A50012180F8C110002070BD022070BDB6
:101980000368196821F007049168214321F01804C5
:10199000D168214319600368116859615168026870
:1019A0009161E6E72DE9F04F90F8C140022C25D077
:1019B00090F8C040012C21D04FF0010980F8C09070
:1019C000022480F8C14000274FF0070C052918D0E9
:1019D0009C2404EBC116012A39D08024A8254FF499
:1019E000005A4FF4405B05EBC11504EBC114022A09
:1019F0002FD0042A45D0082A0BD144E00220BDE8AC
:101A0000F08F012A0AD0022A0CD0042A0ED0082A0C
:101A100010D080F8C1C080F8C0700EE0026819686C
:101A2000D1610AE002681968516206E0026819682B
:101A3000916202E002681968D16290F8C11007292A
:101A400048D080F8C19080F8C0700020D7E71968AE
:101A500035E04FF0A408D0F800C008EBC1111A68B7
:101A60004CF801205968002901680A5922F44052B3
:101A70002ED00A5101680A59D3F804C042EA0C0278
:101A800018E0196821E04FF0AC08D0F800C008EB6E
:101A9000C1111A684CF801205968002901680A59D7
:101AA00022F4404214D00A5101680A59D3F804C004
:101AB00042EA8C020A515968514503D1996802687B
:101AC0009151BAE75945B8D1996802685151B4E7C4
:101AD0000A51B2E7012092E710B590F8C020012A20
:101AE0000ED0012200F8C02F0223437050F8C03CF2
:101AF0001C680C431C60427000210170084610BD38
:101B0000022010BD70B5044690F8C100022811D023
:101B100094F8C00001280ED0012584F8C05002209E
:101B200084F8C100204601F0D6FB84F8C1500020A3
:101B300084F8C00070BD022070BD10B590F8C020C0
:101B4000012A10D0012200F8C02F0223437050F860
:101B5000C03CD3F894430C43C3F894434270002133
:101B60000170084610BD022010BD10B590F8C020CD
:101B7000012A10D0012200F8C02F0223437050F830
:101B8000C03CD3F898430C43C3F8984342700021FB
:101B90000170084610BD022010BD2DE9F041054638
:101BA00090F8C10014460E46022825D095F8C000D2
:101BB000012823D0012785F8C070022085F8C100D4
:101BC000052E1DD0284601F0EDFBC6EBC60005EB47
:101BD00080002168016261684162A1688162E168F8
:101BE000C162216901633146284601F047FB85F84F
:101BF000C170002085F8C000BDE8F0810220FBE73D
:101C000028680168D0F8A02321F0200361691943F6
:101C100021F40063A169194321F48063E169194348
:101C200021F0C063216A194321F00063616A1943FE
:101C3000A36A21F0404141EA830121F00053216B66
:101C4000194322F48033E26A01601A432868C0F81D
:101C5000A023BAE790F84120202A24D190F8402010
:101C6000012A20D0012280F84020242280F841203F
:101C70000268136823F0010313600268136823F4F9
:101C800080531360026813680B43136001680A688D
:101C900042F001020A60202180F84110002180F802
:101CA0004010084670470220704790F84120202AD3
:101CB00022D190F84020012A1ED0012280F8402035
:101CC000242280F841200268136823F00103136086
:101CD0000268136823F4706343EA0121116001680C
:101CE0000A6842F001020A60202180F841100021B8
:101CF00080F84010084670470220704770B5040015
:101D000004D094F84100002510B106E0012070BD18
:101D100084F84050204600F0F9F8242084F841006F
:101D20002068016821F0010101606068216820F0ED
:101D3000706008612068816821F400418160E0687A
:101D40000128A06807D040F4044021688860E0685A
:101D5000022803D006E040F40040F6E721684FF483
:101D60000060486020684168114A11434160206862
:101D7000C16821F40041C160D4E904010843A169AC
:101D800040EA01202168C860D4E9070108432168BE
:101D900008602068016841F001010160656420204D
:101DA00084F84100256384F84250002070BD000093
:101DB000008000022DE9FF4F83B00446DDE9108763
:101DC00090F84100DDF848909A469346202871D15A
:101DD0005FEA080014D09FB194F84000012869D050
:101DE000012084F84000FFF7F1FB06460122009035
:101DF0001923D103204601F013FC00286ED103E023
:101E00004FF40070606469E0212084F841004020B4
:101E100084F8420000256564C4F824806785656302
:101E2000CDE9009653465A462046049901F0B0FB8E
:101E300010B184F8405051E0608DFF274FF080785A
:101E40004FF0007AFF2804D927853A46434600958B
:101E500005E0608D2085009594F8282053462046A3
:101E6000049901F0C7FB32464946204601F02AFC9E
:101E7000A0BB606A216800788862606A401C60626A
:101E8000608D401E6085208D401E80B22085618D52
:101E9000D9B1D0B94B46002280212046009601F0EE
:101EA000BFFBD8B9608DFF2805D927853A46434640
:101EB000009506E026E0608D2085009594F82820A6
:101EC00053462046049901F095FB608D0028CAD145
:101ED00032464946204601F0CFFB18B1012007B039
:101EE000BDE8F08F20682021C16120684268064B60
:101EF0001A40426084F8411084F8425084F84050FF
:101F00000020ECE70220EAE700E800FE10B586B00A
:101F1000044614216846FEF72BFA134920688842CC
:101F20001FD1124C606940F480206061606969468D
:101F300000F4802005904FF4407000901220019032
:101F40000120029003200390042004900848FFF72A
:101F500065FAE06940F40010E061E06900F4001007
:101F6000059006B010BD0000005400400010024073
:101F7000000400480248816802781144816070477B
:101F8000C0000020074810B5016841F01001016051
:101F9000032000F06DF8002000F006F800F024F8AF
:101FA000002010BD0020024070B50D4D04464FF4D6
:101FB0007A712878B1FBF0F00A490968B1FBF0F0BA
:101FC00000F01AFD48B9102C07D200222146501EFD
:101FD00000F02EF800206C6070BD012070BD000084
:101FE000C0000020CC000020094808B5816941F0FC
:101FF00001018161816901F001010091C16941F034
:102000008051C161C06900F08050009008BD00009F
:1020100000100240002809DB00F01F02012191405E
:102020004009800000F1E020C0F800117047000076
:10203000F0B40E4B1B680C46C3F30223C3F1070533
:10204000042D00D90425191D072901D2002300E021
:10205000DB1E012606FA05F1491E214099409E40EB
:10206000761E16403143F0BC02F0EEBE0CED00E0EF
:10207000064900F0070208684FF6FF03184040EADF
:102080000220034A10430860704700000CED00E096
:102090000000FA052DE9F84F0446006800265C4D63
:1020A000C0036ED5E869C00008D4E86940F08050EC
:1020B000E861E869012600F0805000905548016809
:1020C000C90512D40168804641F480710160FFF7B0
:1020D0007DFA074605E000BFFFF778FAC01B6428C9
:1020E00035D8D8F80000C005F6D5286A10F440703D
:1020F00053D0A18801F4407181424ED0286A4FF438
:10210000803191FAA1F2B2FA82F29700424A4FF07E
:102110000108174420F44070C7F8008491FAA1F137
:10212000B1FA81F102EB81010023C1F80034286289
:10213000C00732D0FFF74AFA074641F2883A4FF01B
:10214000020907E0FFF742FAC11B514502D90320FB
:10215000BDE8F88F99FAA9F1B1FA81F141F0400197
:102160004846B8EB511F01D129680CE090FAA0F164
:10217000B1FA81F141F04001B0EB511F02D1296A5F
:1021800001E015E0696A99FAA9F0B0FA80F000F070
:102190001F0008FA00F21142D4D0286A616820F4C6
:1021A0004070084328621EB1E86920F08050E86161
:1021B0002078C00705D0286BA16820F003000843F1
:1021C00028632078800605D5286BE16820F0100090
:1021D000084328632078000605D5E86A216920F4C1
:1021E000F8700843E8622088C00405D5286B61694F
:1021F00020F48070084328632088400405D5286BAC
:10220000A16920F48050084328630020A0E7000063
:102210000010024000700040000042422DE9F047EB
:102220000F46050069D04A4E306800F00700B842FA
:1022300009D2306820F0070038433060306800F081
:102240000700B84259D12878424C800705D560680C
:10225000A96820F0F000084360602878C0073DD0EE
:102260006968012001290DD0022923D05FF0020303
:1022700093FAA3F2B2FA82F242F02002520904D099
:10228000226803E04FF40033F2E7626A93FAA3F3A3
:10229000B3FA83F303F01F03984002422DD0606825
:1022A00020F0030008436060FFF790F9804641F298
:1022B00088390CE04FF00073DAE700BFFFF786F9CA
:1022C000A0EB0801494502D90320BDE8F08760680A
:1022D000696800F00C00B0EB810FEFD1306800F0BE
:1022E0000700B8420BD9306820F00700384330604F
:1022F000306800F00700B84201D00120E5E72878F7
:10230000400705D56068E96820F4E0600843606034
:102310002878000706D56068296920F4605040EAF3
:10232000C100606000F04EF86168F02292FAA2F2FB
:1023300001F0F001B2FA82F2D140074A515CC84084
:102340000649086006480068FFF72EFE0020BCE73B
:10235000002002400010024092570008CC000020EC
:10236000C400002008480949006849684FF4E06249
:1023700092FAA2F201F4E061B2FA82F2D140044A88
:10238000515CC84070470000CC00002000100240A3
:10239000A257000808480949006849684FF460528C
:1023A00092FAA2F201F46051B2FA82F2D140044AE8
:1023B000515CC84070470000CC0000200010024073
:1023C000A2570008164A10B55168164801F00C03D0
:1023D000042B20D0082B1ED14FF4701494FAA4F4CF
:1023E00001F47013B4FA84F4E3400F4CD26AE45C55
:1023F0000F2393FAA3F302F00F02B3FA83F3DA4048
:10240000094B1033C9039A5C06D500231946FDF722
:102410002CFFA0FB040110BD0448A4FB000110BD6B
:102420000010024000127A007257000800093D00B7
:102430002DE9F84F050071D02878FC4EC0074FF009
:10244000010425D070686704C0F38100012807D01B
:102450007068C0F3810002281BD17068C00318D5D2
:1024600097FAA7F0B0FA80F040F02000400901D0C0
:10247000306800E0706A97FAA7F1B1FA81F101F0D3
:102480001F0104FA01F1084265D068680028D2D023
:1024900061E06868B0F5803F0BD010B1B0F5A02FB7
:1024A00017D0306820F480303060306820F480200D
:1024B00002E0306840F480303060F06AA96820F0B3
:1024C0000F000843F062686820B3FFF77FF880468A
:1024D0000AE0306840F480203060EAE7FFF776F8E1
:1024E000A0EB0800642871D897FAA7F0B0FA80F042
:1024F00040F02000400901D0306800E0706A97FA8F
:10250000A7F1B1FA81F101F01F0104FA01F10842CB
:10251000E4D020E0FFF75AF8804607E0C2E000BFB1
:10252000FFF754F8A0EB08006428DCD897FAA7F06E
:10253000B0FA80F040F02000400901D0306800E09F
:10254000706A97FAA7F1B1FA81F101F01F0104FA5C
:1025500001F10842E4D12878DFF8D48280074FF0F7
:10256000000A4FF0020730D570684FF0F80B10F0FA
:102570000C0F07D07068C0F38100022827D1706863
:10258000C00324D497FAA7F0B0FA80F040F02000FE
:10259000400901D0306800E0706A97FAA7F1B1FAFB
:1025A00081F101F01F0104FA01F1084202D028690B
:1025B000012877D130689BFAABF220F0F801686906
:1025C000B2FA82F29040014331605AE064E1286936
:1025D00088B394FAA4F0B0FA80F048F82040FEF7EF
:1025E000F5FF814606E000BFFEF7F0FFA0EB090013
:1025F00002289AD897FAA7F0B0FA80F040F02000AD
:10260000400901D0306800E0706A97FAA7F1B1FA8A
:1026100081F101F01F0104FA01F10842E4D03068B1
:102620009BFAABF26969B2FA82F220F0F8009140AD
:102630000843306025E0FFE794FAA4F0B0FA80F098
:1026400048F820A0FEF7C2FF814605E0FEF7BEFF76
:10265000A0EB09000228CCD897FAA7F0B0FA80F0D6
:1026600040F02000400901D0306800E0706A97FA1D
:10267000A7F1B1FA81F101F01F0104FA01F108425A
:10268000E4D1287800076CD5A869A8B394FAA4F01F
:10269000B0FA80F008EB8000C0F88044FEF796FFA7
:1026A000814607E0A4E100BFFEF790FFA0EB090020
:1026B00002289ED897FAA7F0B0FA80F040F06000A8
:1026C000B4EB501F01D130680BE097FAA7F0B0FAD5
:1026D00080F040F06000B7EB501F01D1306A00E09D
:1026E000706A97FAA7F1B1FA81F101F01F0104FABB
:1026F00001F21042D8D034E0FFE794FAA4F1B1FA25
:1027000081F108EB8101C1F880A4FEF75FFF8146EB
:1027100006E000BFFEF75AFFA0EB090002289AD896
:1027200097FAA7F0B0FA80F040F06000B4EB501FC9
:1027300001D130680BE097FAA7F0B0FA80F040F0D2
:102740006000B7EB501F01D1306A00E0706A97FA61
:10275000A7F1B1FA81F101F01F0104FA01F2104270
:10276000D8D12878400768D5F0694FF00009C0003B
:1027700009D4F06940F08050F061F0694FF0010930
:1027800000F0805000902B480168C90512D4016800
:1027900041F480710160FEF719FF834606E000BF37
:1027A000FEF714FFA0EB0B00642875D821480068E1
:1027B000C005F5D5E86801280AD008B1052811D070
:1027C000306A20F001003062306A20F0040002E03C
:1027D000306A40F001003062E86868B3FEF7F6FE48
:1027E00083460DE0306A40F004003062F0E700BF3D
:1027F000FEF7ECFEA0EB0B0141F2883081424BD892
:1028000097FAA7F0B0FA80F040F04000B4EB501F08
:1028100001D1306813E097FAA7F0B0FA80F040F0E9
:102820004000B7EB501F09D1306A08E000100240A9
:1028300000004242007000400CE040E0706A97FAED
:10284000A7F1B1FA81F101F01F0104FA01F210427F
:10285000CED02DE0FEF7BAFE834607E0FEF7B6FEC7
:10286000A0EB0B0141F28830814215D897FAA7F00E
:10287000B0FA80F040F04000B4EB501F01D1306856
:102880000CE097FAA7F0B0FA80F040F04000B7EB08
:10289000501F02D1306A01E083E0706A97FAA7F115
:1028A000B1FA81F101F01F0104FA01F21042D5D111
:1028B000B9F1000F03D0F06920F08050F061E869B1
:1028C00080B37168C1F38101022977D04FF0807124
:1028D0004F000228504609D091FAA1F1B1FA81F1D6
:1028E00048F82100FEF772FE05465DE0894691FA40
:1028F000A1F1B1FA81F1C24648F82100FEF766FE67
:10290000804605E0FEF762FEA0EB0800022848D8EA
:1029100097FAA7F0B0FA80F040F02000400902D00A
:10292000306801E066E0706A97FAA7F1B1FA81F1C8
:1029300001F01F0104FA01F10842E3D1D5E90810C2
:102940000843716821F474110843706099FAA9F082
:10295000B0FA80F04AF82040FEF738FE054604E061
:10296000FEF734FE401B02281BD897FAA7F0B0FAF6
:1029700080F040F02000400901D0306800E0706A2B
:1029800097FAA7F1B1FA81F101F01F0104FA01F100
:102990000842E5D02EE000BFFEF718FE401B0228DB
:1029A00002D90320BDE8F88F97FAA7F0B0FA80F0BB
:1029B00040F02000400902D0306801E00BE0706A6E
:1029C00097FAA7F1B1FA81F101F01F0104FA01F1C0
:1029D0000842E1D10EE00128E4D070682A6A00F4D0
:1029E0008031914204D1696A00F47010884201D0AC
:1029F0000120D7E70020D5E710B5401EB0F1807F59
:102A000001D3012010BD4FF0E02460610F21601759
:102A100002F01AFA0020A06107202061002010BDFA
:102A20007047704770470000F0B590F83C20012ACD
:102A30002CD0012480F83C40022280F83D2003681D
:102A40005A689D68124EB34203D122F470074A6857
:102A50003A4322F070070A683A435A600268B24269
:102A600008D0B2F1804F05D00A4B9A4202D00A4BEF
:102A70009A4204D1896825F080031943916080F857
:102A80003D40002180F83C100846F0BD0220F0BD1A
:102A9000002C0140000400400040014010B504003B
:102AA00003D094F83D0010B107E0012010BD0020D4
:102AB00084F83C00204600F023F8022084F83D0012
:102AC000211D206801F05AFD012084F8480084F897
:102AD0003E0084F83F0084F8400084F8410084F808
:102AE000420084F8430084F8440084F8450084F8E8
:102AF000460084F8470084F83D00002010BD000027
:102B000008B500680B49884212D10B48C16941F0F1
:102B10000201C161C069002200F0020000900221A0
:102B20001D20FFF785FABDE808401D20FFF772BAA7
:102B300008BD0000000400400010024090F83D1065
:102B4000012901D001207047022180F83D10016861
:102B5000CA6842F00102CA6000680D49884208D084
:102B6000B0F1804F05D00B49884202D00A49884213
:102B700007D18168094A1140062906D0B1F5803F86
:102B800003D0016841F0010101600020704700009E
:102B9000002C0140000400400040014007000100FB
:102BA00070B5044690F83C00012817D0012584F840
:102BB0003C50022084F83D00226890682E4B18405B
:102BC00020F47F4090600868502830D00DDC202829
:102BD0004DD005DC98B310283BD148E0022070BDF1
:102BE000302844D0402834D139E0602828D07028DB
:102BF00006D0B0F5805F2CD0B0F5005F29D10AE097
:102C0000CB68D1E90121206801F0FCFC20688168D3
:102C100041F0770109E0CB68D1E90121206801F09A
:102C2000F1FC2068816841F48041816011E0CA684C
:102C30004968206801F03EFD5021206807E016E059
:102C4000CA684968206801F046FD6021206801F0EB
:102C5000E3FC84F83D50002084F83C0070BDCA6855
:102C60004968206801F026FD40212068EFE72268CE
:102C700001461046EBE7000088FFFEFF704770B585
:102C80000446006801694FF00005C943890715D45F
:102C9000C168C943890711D4E91E01610120207769
:102CA000206880698007204602D0FFF7E7FF04E034
:102CB00000F0A7F8204600F0A5F825772068016904
:102CC000C943490717D4C168C943490713D46FF0F2
:102CD00004010161022020772068806910F4407FA0
:102CE000204602D0FFF7CAFF04E000F08AF8204631
:102CF00000F088F8257720680169C943090716D4D0
:102D0000C168C943090712D46FF0080101610420AA
:102D100020772068C0698007204602D0FFF7AEFF09
:102D200004E000F06EF8204600F06CF8257720688B
:102D30000169C943C90617D4C168C943C90613D478
:102D40006FF010010161082020772068C06910F43D
:102D5000407F204602D0FFF791FF04E000F051F8D9
:102D6000204600F04FF8257720680169C943C9075C
:102D700008D1C168C943C90704D1891E0161204631
:102D800000F041F820680169C943090609D4C16807
:102D9000C943090605D46FF0800101612046FFF7A1
:102DA00040FE20680169C943C90509D4C168C94307
:102DB000090605D46FF4807101612046FFF730FEEB
:102DC00020680169C943490609D4C168C943490655
:102DD00005D46FF040010161204600F040F8206802
:102DE0000169C94389060BD4C168C943890607D460
:102DF0006FF0200101612046BDE87040FFF712BE70
:102E000070BD70477047704770B5044690F83C003D
:102E1000012812D0012584F83C50022084F83D009E
:102E2000204601F001FC01004FF0000007D084F8BB
:102E30003D5084F83C00012070BD022070BD216827
:102E4000CA6822F04002CA602168CA6822F480423F
:102E5000CA6084F83D5084F83C00002070BD704783
:102E60007047704770470146806FC96F08437047CD
:102E70002DE9F04102680446D0691168936840F674
:102E80000F0528424FF0000505D1860678D58E063D
:102E900076D5616EF2E0824F03F001060F403743B2
:102EA0007ED0C70709D0CF0507D501271762D4F810
:102EB000802042F00102C4F8802082070AD5DA0798
:102EC00008D0276802223A62D4F8802042F0040237
:102ED000C4F8802042070AD5DA0708D02368042204
:102EE0001A62D4F8802042F00202C4F8802002075F
:102EF0000CD501F02002324308D0236808221A6260
:102F0000D4F8802042F00802C4F8802002050BD5D6
:102F10004A0109D523684FF400621A62D4F8802070
:102F200042F02002C4F88020D4F88020002A2FD05C
:102F3000800605D5880603D5616E09B1204688470D
:102F4000D4F8800021688968490602D410F0280F5F
:102F500020D0204601F06DFC20688168490614D518
:102F6000816821F040018160206F70B14D4941635B
:102F7000206FFEF7BCF900280AD0206F416B01E0FA
:102F80000EE02046BDE8F04108472046FFF76AFF03
:102F9000BDE8F0812046FFF765FFC4F88050F7E7F1
:102FA000276E2026012F58D1C70656D5CF0654D5F7
:102FB000102010622268906840062DD5216F0868A5
:102FC00040680004000CE3D0B4F858308342DFD9E5
:102FD000A4F85A008869202817D0106820F480705F
:102FE00010602068816821F001018160206881689B
:102FF00021F040018160E66725662068016821F0C4
:1030000010010160206FFEF74FF9B4F85800B4F8D2
:103010005A10401A81B21CE0B4F85800B4F85A10A3
:10302000401A81B2B4F85A000028B1D00029AFD0BC
:10303000106820F4907010602068826822F001020D
:103040008260E667256665662068026822F01002E5
:1030500002602046FFF704FF9AE7C70209D55B022A
:1030600007D54FF4801010622046BDE8F041FFF70D
:10307000F8BE030605D50B0603D5A16E002980D145
:1030800086E7400684D5480682D51168204621F09F
:1030900040011160A667A56600F0EFF878E7000030
:1030A000200100041F48000810B5040002D0A06FE2
:1030B00010B107E0012010BD002084F87400204604
:1030C00000F026F82420A0672068016821F00101A3
:1030D0000160204601F042FC0128ECD0606A10B18A
:1030E000204601F00AFB2068416821F490414160CC
:1030F0002068816821F02A0181602068016841F020
:10310000010101602046BDE8104001F05ABB0000FB
:1031100010B586B0044614216846FDF729F9164912
:103120002068884226D11548816941F48041816137
:10313000816901F480410591416941F48021416137
:103140004069694600F480200590C020009002206C
:10315000019000200290032003900720049008486B
:10316000FEF75CF9002203212520FEF761FF2520F0
:10317000FEF750FF06B010BD0038014000100240BD
:103180000004004810B4C36F202B18D1A1B19AB12C
:1031900090F87430012B12D0012380F87430002392
:1031A000036603685C68240203D51C6844F08064ED
:1031B0001C6010BC01F074BC012010BC70470220E0
:1031C000FBE770472DE9F8430446806F1F4616461B
:1031D0000D4620284FD1CDB1C6B194F87400012816
:1031E00049D0012084F874004FF00008C4F88080B2
:1031F0002120A067FEF7EAF9A4F850608146A4F800
:103200005260A068B0F5805F03D004E00120BDE803
:10321000F883206928B12E465FF0000584F8748099
:1032200010E00026FAE78021204601F081FCB8B9C1
:10323000C6B116F8010B21680885B4F85200401E8B
:10324000A4F85200B4F852004B464FF00002009729
:103250000028E8D14FF04001204601F069FC30B170
:103260000320D4E735F8020BC0F30800E3E7202081
:10327000A0670020CBE70220C9E77047062911D2DA
:10328000DFE801F00911171D23030068D0F884134B
:1032900041F0010104E00068D0F8841341F002011C
:1032A000C0F8841370470068D0F8841341F004011B
:1032B000F6E70068D0F8841341F00801F0E70068F1
:1032C000D0F8841341F01001EAE70068D0F88413C5
:1032D00041F02001E4E7F0B50024E425076805EBA0
:1032E000C11657F806C0B82505EBC1157D59202A2F
:1032F00027D00CDC042A15D004DC012A12D0022AC3
:103300002BD11EE0082A1CD0102A26D10AE0402A20
:1033100008D0802A15D0B2F5807F03D0B2F5007FA7
:103320001BD10EE04FF0BC0E0EEBC11E5A6847F8E1
:103330000E204FF0C00E07680EEBC1119A687A504C
:103340000BE0C42404EBC1145A683A51C82704683E
:1033500007EBC1119A6862501024FE21A1401A683F
:103360002CEA010CA240D96842EA0C02A1401143A8
:103370001A69D3F814C01746A2400A430CFA04FC99
:1033800099694CEA020CA14041EA0C01082F06D1D0
:10339000AA0504D4AA0102D4DA69A2401143006844
:1033A0008151F0BD2DE9F04F8024036804EBC11674
:1033B0009C5924F070449C5103689A469D59E82416
:1033C00004EBC114A64653F80490E42404EBC114A2
:1033D000A3461C59D3F8A03325F0200755693D4377
:1033E00025F4006795693D4325F48067D5693D4321
:1033F00025F0C067156A3D4325F00067556A3D43D7
:1034000025F07047956A3D43176B25F40035B7F1F9
:10341000005F01D145F4003525F04007556BD2F827
:1034200048802F4327F4802C176D47EA0C0727F0BC
:10343000FC7748EA070892F8387029F01F0C07F06B
:103440001F0747EA0C0727F0004CD76B47EA0C0729
:1034500025B924F4807C146C44EA0C04D2F844C0EE
:10346000BCF5606F02D0BCF5F05F01D1402D03D1F7
:1034700024F4F0544CEA0404D56C052921D2DFE889
:1034800001F003090F151B00D26A23F4003343EA4D
:10349000420316E0D26A23F4802343EA820310E059
:1034A000D26A23F4002343EAC2030AE0D26A23F477
:1034B000801343EA021304E0D26A23F4001343EAC0
:1034C00042134AF80680066846F80E70066846F809
:1034D0000B40D424026804EBC11155500068C0F8B9
:1034E000A033BDE8F08FFEE701688A69D2439207F6
:1034F00001D400228A6200688169C943C90703D0E8
:10350000816941F001018161704700002DE9F041BE
:103510000446006890460E468069C043C00633D416
:103520000025202720688069C043800615D5701CBF
:10353000F8D0FEF74BF8A0EB0800B04201D8002EFF
:10354000F0D154F8440F40F0200044F804096770AB
:10355000A57025700120BDE8F08121681020C861A8
:103560002068C7612046FFF7BFFF54F8440B41684D
:10357000064A11404160206840F0040044F82009E8
:103580006777A5772577E5E70020E4E700E800FE08
:103590002DE9F8430446164615489846DDE9089794
:1035A000DAB2C3020090204600F024F83A464946B9
:1035B000204600F087F8B8B9F5B2B8F1010F08D08D
:1035C0002168300A88623A464946204600F07AF877
:1035D00050B9206885624B46002280212046009722
:1035E00000F01EF8002800D00120BDE8F88300009C
:1035F00000200080F0B50568059C68684FF480667F
:10360000064FC1F3090106EA545641EA02413E431E
:103610001943B043214308436860F0BDFF63FF03D3
:103620002DE9F0411D4617460E460446DDF8188088
:1036300008E0681C06D0FDF7C9FFA0EB0800A8420F
:103640000BD855B12068806936EA000012D00020FE
:10365000B842EED00020BDE8F08154F8440F40F0AD
:10366000200044F80409202060700020A070207021
:103670000120F0E70120EBE770B516460D46044641
:103680000DE0324629462046FFF740FF08B10120F1
:1036900070BDFDF79BFF801BA84207D835B120689D
:1036A0008069C0438006ECD4002070BD54F8440FFC
:1036B00040F0200044F80409202060700020A07031
:1036C0002070E4E770B516460D4604460FE032461A
:1036D00029462046FFF71AFF08B1012070BD681C7B
:1036E00005D0FDF773FF801BA84207D835B12068CD
:1036F0008069C0438007EAD4002070BD54F8440FAD
:1037000040F0200044F80409202060700020A070E0
:103710002070E2E71B4810B500881B4C05282FD20B
:10372000DFE800F003030A111D00012211462046C4
:10373000FDF746FF012218E0012211462046FDF761
:103740003FFF012205E0012211462046FDF738FF28
:10375000002202212046FDF733FF00220AE000226A
:1037600001212046FDF72CFF002202212046FDF713
:1037700027FF01222046BDE810400421FDF720BFAD
:1037800010BD00005C0300200004004870B58AB042
:10379000002406940794182168460894FCF7E8FD75
:1037A0002A484FF0A041012501604FF440310561E6
:1037B000C0E90114447680F82040A902C1620426C1
:1037C000C6614FF4E071C460816280F83050082116
:1037D000416104764463FDF7A3FB08B1FDF781F96D
:1037E00006A91A480694FDF77FF908B1FDF779F9A3
:1037F000009501950225CDE90254049469461348C9
:103800000594FDF7E1F908B1FDF76BF900956946FC
:103810000E480195FDF7D8F908B1FDF762F90320CC
:103820000090019069460948FDF7CEF908B1FDF70F
:1038300058F90096694605480196FDF7C5F9002834
:1038400001D0FDF74EF90AB070BD0000D000002095
:10385000054808B5416941F001014161406900F046
:103860000100009008BD00000010024030B587B094
:1038700014216846FCF77CFD1648416941F400318B
:103880004161416901F400310591416941F48021B0
:1038900041614069104D00F480200590002207210D
:1038A0002846FDF78DFE07200124CDE90004032002
:1038B000CDE9024069462846FDF7B0FD182000908A
:1038C0000020CDE9010469462846FDF7A7FD07B0B1
:1038D00030BD00000010024000040048F0B5AFB059
:1038E00000242D942E9426942794289454216846DD
:1038F0002994FCF73DFD2A942B9424211DA82C9497
:10390000FCF736FD202115A8FCF732FD70486F4901
:10391000C0E900148460FDF735FF08B1FDF7E1F858
:103920000C216B48FDF7B7FE08B1FDF7DAF80A2164
:103930006748FDF7D9FF08B1FDF7D3F84FF48030A1
:103940002D9040112E902DAA01216148FDF744FED3
:1039500008B1FDF7C6F826AA4FF420500125082625
:1039600082E8710000215A48FDF7DFFF08B1FDF73A
:10397000B8F81020CDE900040294CDE90345C00554
:10398000CDE9084005948000069407940A94CDE997
:103990000B4087004015CDE90E47CDE910040D948A
:1039A000129413946A46002149481494FEF7F5F8DE
:1039B00008B1FDF796F8009402946A460121444844
:1039C000CDE90345FEF7E9F808B1FDF78AF841F2C1
:1039D00088302A902AAB012200213D48FDF7E2FF02
:1039E00008B1FDF77EF840F6C4102A902AAB0422F5
:1039F00000213748FDF7D6FF08B1FDF772F8B42073
:103A0000CDE91D404FF40041CDE91F41491022AAE4
:103A1000219182E89100000725901DAA00212C48E1
:103A2000FDF76AFE08B1FDF75CF81DAA01212848E0
:103A3000FDF762FE08B1FDF754F80420CDE915400A
:103A4000CDE9176419941A941B9415AB0122002137
:103A50001F481C94FEF756F808B1FDF742F815AB65
:103A6000042201211A48FEF74DF808B1FDF739F894
:103A7000169415AB0222002115481794FEF742F860
:103A800008B1FDF72EF815AB082201211048FEF70A
:103A900039F808B1FDF725F826AA01210C4827942A
:103AA000FDF743FF08B1FDF71CF842F22830012270
:103AB0002A902AAB11460648FDF774FF08B1FDF7BE
:103AC00010F80348FDF7DAFE2FB0F0BD0074014096
:103AD00064010020134810B511490160124941608A
:103AE00000210122C0E90212016141618161C161CD
:103AF0000162FEF703F908B1FCF7F3FF0021094862
:103B0000FEF7A8F808B1FCF7ECFF00210548FEF726
:103B1000CCF8002803D0BDE81040FCF7E2BF10BD90
:103B200000540040400200200E09002010B500F0B3
:103B300015FA00F0EDF9022319A20021192000F076
:103B400089FA022319A21946002000F083FA022301
:103B500018A20421002000F07DFA022317A20421FC
:103B6000442000F077FA022315A204215F2000F020
:103B700071FA022313A20621002000F06BFA02233F
:103B80000EA20621442000F065FA02230FA20621AE
:103B90005F2000F05FFABDE8104000F03CBA000082
:103BA0004255434B2D424F4F5354000053746174A0
:103BB000653A0000566F75743A0000002E00000050
:103BC00056000000496F75743A0000004100000083
:103BD00010B58CB00024059406940794142168460F
:103BE0000894FCF7C5FB1A4809940A9417490B94EA
:103BF00001602021C0E9011442F21071C0E90314F0
:103C00008461FEF74BFF08B1FCF76BFF4FF4805067
:103C1000059005A90E48FEF7C3FF08B1FCF761FF48
:103C2000009469460A480194FFF7EEF808B1FCF7E2
:103C300058FF099409A906480B94FEF7F5FE0028E1
:103C400001D0FCF74EFF0CB010BD00000004004096
:103C50008C0200200D4810B50B4901604FF4E13192
:103C60004160002181600C22C160C0E904128161C1
:103C7000C16101624162FFF717FA002803D0BDE875
:103C80001040FCF72EBF10BD00380140D8020020C4
:103C9000FEE7FEE72DE9F041664941F6902300205A
:103CA0000A6949685A4340F69803594312134FF47E
:103CB0007A73B2FBF3F4E5B20446091365F3070423
:103CC000A8466FF07C0615FB06F602EBC6076426D5
:103CD000B7FBF6F7FFB267F30F246FF07C0C15FB10
:103CE0000CF502EBC5026FF0180517FB05F502EBAA
:103CF000850C0A22BCFBF2F7B1FBF3F37D4205EB26
:103D0000850567F317440CEB450565F31F642546ED
:103D1000DBB263F307006FF07C0413FB04F401EBE8
:103D2000C404B4FBF6F4E6B2044666F30F246FF065
:103D30007C0013FB00F001EBC0006FF0180116FBD4
:103D400001F100EB8101B1FBF2F060F31744404256
:103D500000EB8000374E01EB4000374F603E60F3D0
:103D60001F64B879318C884217D0308430B1012873
:103D700007D0022808D003280FD108E002232FA281
:103D800007E0022330A204E0022332A201E0022372
:103D900033A20021192000F05DF93888718C884227
:103DA00019D07084052816D2DFE800F00306090C4C
:103DB0000F0002232DA20AE002232EA207E0022315
:103DC0002EA204E002232FA201E002232FA202214F
:103DD000372000F03FF942460421322000F05AF823
:103DE000C5F3072204213C2000F054F8C5F3074234
:103DF00004214B2000F04EF82A0E0421552000F03B
:103E000049F8E2B20621322000F044F8C4F3072258
:103E100006213C2000F03EF8C4F3074206214B2067
:103E200000F038F8220EBDE8F0410621552000F0E0
:103E300031B800007C0000205C0300204D4F444559
:103E40003A2A4E412A2000004D4F44453A425543FC
:103E50004B2000004D4F44453A424F4F5354000011
:103E60004D4F44453A4D495820200000496E697431
:103E70002020000057616974696E67005269736998
:103E80006E67000052756E6E696E67004572726FE4
:103E9000722020000A2A25D2DFE802F005080B0E66
:103EA0001114171A1D2002230FA219E002230FA2DA
:103EB00016E002230EA213E002230EA210E002235A
:103EC0000DA20DE002230DA20AE002230CA207E0DE
:103ED00002230CA204E002230BA201E002230BA2A6
:103EE00000F0B8B87047000030000000310000005A
:103EF00032000000330000003400000035000000F4
:103F000036000000370000003800000039000000D3
:103F100010B5002000F006F8BDE810406420FDF761
:103F20006BBA000070B506465FF0000404F1B00003
:103F3000C0B200F065FF002000F062FF102000F02A
:103F40005FFF0025304600F06DFF6D1CEDB2802D47
:103F5000F8D3641CE4B2082CE8D370BD10B5C820B7
:103F6000FDF74AFAAE2000F04BFF202000F048FF9A
:103F7000102000F045FFB02000F042FFC82000F004
:103F80003FFF002000F03CFF102000F039FF4020F0
:103F900000F036FF812000F033FFFF2000F030FFFB
:103FA000A12000F02DFFA62000F02AFFA82000F09D
:103FB00027FF3F2000F024FFA42000F021FFD320A2
:103FC00000F01EFF002000F01BFFD52000F018FFBE
:103FD000F02000F015FFD92000F012FF222000F0A1
:103FE0000FFFDA2000F00CFF122000F009FFDB20A9
:103FF00000F006FF202000F003FF8D2000F000FFFE
:10400000142000F0FDFEAF2000F0FAFEBDE81040E5
:104010006420FDF7F1B910B58D2000F0F1FE1420F9
:1040200000F0EEFEBDE81040AF2000F0E9BE10B594
:104030000446B031C8B200F0E3FE102040EA14108C
:1040400000F0DEFE04F00F00BDE8104040F001007B
:1040500000F0D6BE2DE9F047002591468A46044679
:10406000012B22D0DFF8BC80022B24D155E0203870
:10407000C7B27E2C04D90AF10100002400F0FF0A27
:1040800051462046FFF7D3FF07EB4700002608EB19
:104090004007B85D00F0C6FE761CF6B2062EF8D3D7
:1040A000A41D6D1CE4B2EDB201E0DFF87C8019F8CC
:1040B00005000028DBD1BDE8F0872038C7B2782C96
:1040C00004D90AF10100002400F0FF0A51462046FD
:1040D000FFF7ADFF5FF0000606EB071118F80100CF
:1040E00000F0A0FE761CF6B2082EF5D30AF101000E
:1040F000C1B22046FFF79BFF5FF0000606EB0711F9
:1041000001EB0800007A00F08DFE761CF6B2082E56
:10411000F4D308346D1CE4B2EDB219F805000028A0
:10412000CBD1C8E7825100085A4F0008704770474A
:1041300070B51E4840F274521D4C01680025914232
:1041400012DDC068B0F5907F0EDCE57103211948DF
:10415000FDF70BFD0C211748FDF707FDA08840F087
:104160002000A08004202080A28890061DD50F4842
:104170006038416C491C4164B1F5C87F15DD456468
:1041800041780A290CD90B214170E57103210948B6
:10419000FDF7EBFCBDE870400C210648FDF7E5BCDF
:1041A000491C417022F02000A08070BD7C000020DE
:1041B0005C030020640100200848008805280CD218
:1041C000DFE800F00305070B090000F03DB800F040
:1041D000E1B800F043B800F003B870475C0300207A
:1041E000114910B50020502208600A828A814A8253
:1041F000CA810E49124C08600D4908600D490860DB
:104200000D4908600D490860E07103210D48FDF774
:10421000ACFC0C210B48FDF7A8FCA088002801D1BC
:104220000120208010BD0000A40000200800002014
:104230000C000020100000201400002018000020B6
:104240005C0300206401002010B500F0DFFC02498F
:104250000120088010BD00005C0300202DE9F05F04
:10426000444E454FDFF814813178DFF81491DFF8C0
:1042700014A1DFF814B14548002506F1880431B1D6
:1042800001291BD0022933D1C07998B344E0C5710C
:1042900003213F48FDF769FC0C213D48FDF765FC13
:1042A0005020A081E0813D60C8F80050C9F800505E
:1042B000CAF800500120CBF8005018E03089401CAB
:1042C00080B23081142813D9358150202082A081FA
:1042D0006082E0813D60C8F80050C9F80050CAF81B
:1042E0000050CBF800502068401020600220307051
:1042F000BDE8F09FFFE73D60C8F80050C9F80050E6
:10430000CAF8005003212248CBF80050FDF715FCF5
:104310000C211F48FDF711FC1C4A0120D071718946
:10432000491C7181B08901EB8101401CB081A389D6
:1043300000EB800003EB410109B2A181E38903EBAB
:10434000400003B240F6E160E381814200DDA081DC
:1043500040F666218B4200DDE181B4F90C308342E6
:10436000C6D1B4F90E008842C2D103201080357046
:10437000BEE700001C000020080000200C00002008
:104380001000002014000020180000205C03002012
:104390006401002070B5184E184C0025F571E088B6
:1043A0004FF48073401C80B2E080984211D9E380C2
:1043B00003211348FDF7C1FBB088002808D1F07A2B
:1043C000012805D1E580E563022025643080257051
:1043D00070BD0A49E56B483198424A882A44E26335
:1043E000C988256C29442164F2D10448120A60303E
:1043F000090AC261816070BD5C0300201C000020BE
:104400006401002070B52348224D40F25D410068F0
:10441000214C0026603D884202DD208803281ED002
:10442000EE81A088C10634D5298A491C89B2298227
:10443000B1F5C87F2DD92E82698A491C89B269825B
:104440000A2923D90B206882E67103211348FDF75E
:104450008CFBBDE870400C211048FDF786BBE88955
:10446000401C80B2E8810A28DBD9EE81E671032185
:104470000A48FDF77AFB0C210848FDF776FBA08877
:1044800040F01000A08004202080CAE720F0100037
:10449000A08070BD7C0000205C030020640100202F
:1044A000FDF768BD30B597B028216846FBF760FF7F
:1044B00014210AA8FBF75CFF1C210FA8FBF758FF8B
:1044C00002250120049000951020059000244FF44F
:1044D0006010CDE9084007956846FDF7A9FF08B1CF
:1044E00072B6FEE70F20CDE90A054FF48060CDE9F2
:1044F0000C4002210AA80E94FDF790FE08B172B696
:10450000FEE744F220000F904FF480501590129473
:104510000FA8FDF7BFFD002801D072B6FEE717B067
:1045200030BD00000248016841F47001016070472D
:1045300088ED00E010B50F48FEF7A1FB0E4801889A
:10454000491C0180FCF778F8FFF7F2FDFFF75AFFEE
:1045500000F0FAFB00F0B4FB00F088FBFCF7C8F9B0
:10456000FFF72AFE00F01AFCFCF74CF9BDE81040FA
:10457000FFF7D0B88C020020BC000020F0B5026824
:104580001B4B1C4F4FF0804C984203D0604501D02C
:10459000B84203D122F070044A682243164C174DEA
:1045A000174E984209D0604507D0B84205D0A042C6
:1045B00003D0A84201D0B04203D122F44077CA68A8
:1045C0003A434F6922F080023A4302608A68C2622D
:1045D0000A688262984205D0A04203D0A84201D066
:1045E000B04201D10969016301214161F0BD0000C0
:1045F000002C014000040040004001400044014004
:104600000048014010B5846842EA032224F47F4444
:104610000A432243826010BD826822F070020A437E
:1046200042F007018160704710B50468A26822F06B
:1046300070034A681A431E4B1A400B681343A36069
:104640004A6812F00F0F30D11211082A2DD2DFE87C
:1046500002F02C2C2C2C0B2127040B69D1E9022110
:104660000068FFF7CFFF20E00A68052A10D0026833
:10467000136A146A24F001041462026894690969D7
:1046800024F0F00444EA01119161006803620CE037
:10469000012010BD0A698968006800F00BF804E089
:1046A0000A698968006800F016F8002010BD000053
:1046B000F8FFFEFF10B5036A046A24F001040462E7
:1046C000846924F0F00444EA021423F00A020A4345
:1046D0008461026210BD10B5036A23F01003036207
:1046E0008369046A23F4704343EA023224F0A0038E
:1046F00043EA01118261016210BD90F82410C907DC
:1047000006D001684A68836A22F400321A434A607C
:1047100090F82410890706D501684A68C36A22F414
:1047200080321A434A6090F82410490706D5016880
:104730004A68036B22F480221A434A6090F82410DE
:10474000090706D501684A68436B22F400421A4300
:104750004A6090F82410C90606D501688A68836B00
:1047600022F480521A438A6090F82410890606D5F4
:1047700001688A68C36B22F400521A438A6090F879
:104780002410490611D501684A68036C22F480128E
:104790001A434A60016CB1F5801F06D101684A686E
:1047A000436C22F4C0021A434A6090F824100906B0
:1047B00006D501684A68806C22F4002202434A60F0
:1047C0007047F8B500260446C0F88060FCF7FEFE8E
:1047D0000546206800686FF07E47000708D52B4625
:1047E00000224FF400112046009700F0A1F960B9B3
:1047F0002068006840070AD52B4600224FF480014C
:104800002046009700F094F908B10320F8BD20205D
:10481000A067E067266684F874600020F8BD10B5D4
:10482000406A0021A0F85A10A0F85210FEF71AFBB7
:1048300010BD01680A6822F490720A6001688A68F3
:1048400022F001028A60016E012904D101680A6820
:1048500022F010020A602021C16700210166416632
:10486000704770B5B0F85C10C26F04460068222A29
:1048700004D0816941F00801816170BD808C626D56
:1048800008401080606D801C6065B4F85A00401EBE
:10489000A4F85A00B4F85A000028EED12068016844
:1048A00021F4907101602068816821F0010181602C
:1048B0002020E06700256566206E012804D0204690
:1048C000FEF77FFC256670BD2068016821F01001AD
:1048D0000160B4F858102046FEF7C2FAF2E770B54E
:1048E000B0F85C10C26F04460068222A04D08169C7
:1048F00041F00801816170BD808C0840616D0870D5
:10490000606D401C6065B4F85A00401EA4F85A005F
:10491000B4F85A000028EED12068016821F49071A3
:1049200001602068816821F0010181602020E0673A
:1049300000256566206E012804D02046FEF741FC64
:10494000256670BD2068016821F010010160B4F88F
:1049500058102046FEF784FAF2E7000070B50446CE
:1049600080682169E2690843616900251143226872
:1049700008431168444B19400143116020684168A5
:10498000E26821F4405111434160A169206A084363
:1049900021688A6822F4306202438A603B492068B9
:1049A000884210D13A48006B10F0030011D0012862
:1049B00005D0022805D003280DD102210CE00421E6
:1049C0000AE0082108E03349884202D0324988428F
:1049D00001D1002100E01021E3694FF400422F488B
:1049E0004FF6EF76934227D1092941D2DFE801F053
:1049F00005080E400B4040402200FDF7B3FC04E0E8
:104A0000FDF7C8FC01E0FDF7DDFC90B341006068F4
:104A100001EB5001B1FBF0F080B2A0F11001B14206
:104A200026D84FF6F0710140C0F3420001432068E0
:104A3000C16023E01046E9E7092919D2DFE801F057
:104A400005080E180B1818181A00FDF78BFC04E067
:104A5000FDF7A0FC01E0FDF7B5FC50B1616800EB8B
:104A60005100B0FBF1F080B2A0F11001B14203D9C6
:104A7000012503E01046F1E72168C8600020606668
:104A8000A066284670BD0000F369FFEF00380140C2
:104A900000100240004400400048004000127A002C
:104AA00030B54165A0F85820A0F85A20002242668F
:104AB00081684FF48055FF23A94204D1016921BBCD
:104AC00040F2FF1127E07F24E9B1B1F1805F1FD0F0
:104AD000A0F85C20C0F880202221C16701688B68A3
:104AE00043F001038B608168A94201D10169C1B122
:104AF0000D49416680F874200068016841F49071A6
:104B00000160002030BD016941B9A0F85C30E1E7E7
:104B1000016919B13F21A0F85C10DBE7A0F85C4007
:104B2000D8E70249E5E70000DF48000863480008CD
:104B30002DE9F0479A4617460E4604464FF0000905
:104B40004FF02008089D39E0681C37D0FCF73EFD87
:104B5000A0EB0A00A84222D80DB3206801684907DB
:104B60002CD5C069C043000528D421684FF40060EB
:104B700008622068016821F4D071016020688168B2
:104B800021F001018160C4F87880C4F87C80C4F809
:104B9000808000BF84F874900320BDE8F08720680F
:104BA000016821F4D07101602068816821F0010161
:104BB0008160C4F87880C4F87C80EBE72068C06925
:104BC00036EA000004D00020B842BDD00020E4E75F
:104BD0000120F9E710B50A48FEF74AF9FBF76EFF26
:104BE0000748FEF745F90648FEF73DF92028FAD1B7
:104BF000012204490248FEF7C5FA0028F8D110BD89
:104C0000D80200201E000020FEE7000070B50F4D06
:104C100000240321EC710E48FCF7A7FF0C210C487F
:104C2000FCF7A3FF0B48AC80502104600182818116
:104C30004182C18108480460084804600848046053
:104C4000084804600848046070BD00005C03002050
:104C500064010020A4000020080000200C000020B7
:104C6000100000201400002018000020114810B58A
:104C70001049026A40F6C433002060399A4217DDB9
:104C80004A8B521C92B24A83022A10D90A4C48839A
:104C90000321E0710948FCF768FF0C210748FCF785
:104CA00064FFA08840F00200A0800420208010BD96
:104CB000488310BD7C0000205C03002064010020BC
:104CC0002DE9F0411D4F40F2AE210026386A1C4DFF
:104CD000A7F16004884219DA2888B8B1E08A401C3C
:104CE00080B2E082022812D9E6822683EE71032187
:104CF0001448FCF73AFF0C211248FCF736FFA8884D
:104D000040F00100A8800420288000E0E682A88806
:104D1000C10710D0396AB1F5477F0CDB218B491CE4
:104D200089B22183C82904D92683E68220F00100B4
:104D3000A880BDE8F0812683FBE700007C0000200E
:104D40005C03002064010020114810B51049C268BE
:104D500040F6C433002060399A4217DD8A8A521C1B
:104D600092B28A82022A10D90A4C88820321E07109
:104D70000948FCF7FAFE0C210748FCF7F6FEA0886C
:104D800040F00800A0800420208010BD888210BD63
:104D90007C0000205C0300206401002015489FED8A
:104DA000161A90ED090A8830B8EE400A016801F140
:104DB0000A03C0EE010A9FED110A20EE800ABDEE43
:104DC000C00A10EE102A934201DA036005E00A39A6
:104DD000914201DD016000E002600168B1EB420F29
:104DE00001DD510001600A4640F669318A4200DD6A
:104DF000016070471C00002000D0844700008045FF
:104E000001B584B00121642204A88DE807000B4697
:104E1000002278210248FCF7CDFF05B000BD00005C
:104E20004002002001B584B00121642204A88DE86D
:104E300007000B46402278210248FCF7BBFF05B073
:104E400000BD0000400200200907090E002804DB15
:104E500000F1E02080F80014704700F00F0000F12E
:104E6000E02080F8141D70477047000004490A686C
:104E70005206FCD5024AC1B20C32118070470000C4
:104E80001C380140FDF77EF8FFF70CFBFEF7EEFC47
:104E9000FEF7DEFCFEF722FDFEF778FCFEF71AFEB9
:104EA000FEF796FEFEF7D6FEFEF740FE1848FDF729
:104EB00045FE012217491848FEF764F904221749F4
:104EC0001748FCF76DF903211648FCF736FE0C2154
:104ED0001448FCF732FE4FF400311248FCF7FCFD99
:104EE0004FF480210F48FCF7F7FD0E48006850F89A
:104EF0008C1F41F0100101600BA0FBF72DFA134C41
:104F0000002520883C28FCD92580FEF7C3FEF8E761
:104F10008C0200201E000020D80200206400002027
:104F2000D00000206401002077656C636F6D652000
:104F3000746F20706F727461626C6520706F77653A
:104F40007220737570706C7921000000BC00002025
:104F50004FF04070E1EE100A7047000000000000C2
:104F60000000002F000000000700070000147F145D
:104F70007F1400242A7F2A1200626408132300365B
:104F80004955225000000503000000001C2241008A
:104F9000000041221C000014083E08140008083ECE
:104FA0000808000000A060000008080808080000C9
:104FB00060600000002010080402003E5149453E98
:104FC0000000427F400000426151494600214145B6
:104FD0004B31001814127F10002745454539003C1D
:104FE0004A494930000171090503003649494936EB
:104FF00000064949291E00003636000000005636DA
:1050000000000008142241000014141414140000BD
:105010004122140800020151090600324959513E4B
:10502000007C1211127C007F49494936003E414103
:105030004122007F4141221C007F49494941007FB4
:1050400009090901003E4149497A007F0808087FA3
:105050000000417F4100002040413F01007F0814D3
:105060002241007F40404040007F020C027F007FD1
:105070000408107F003E4141413E007F09090906B6
:10508000003E4151215E007F0919294600464949E9
:1050900049310001017F0101003F4040403F001FB6
:1050A0002040201F003F4038403F00631408146335
:1050B00000070870080700615149454300007F411F
:1050C000410000552A552A55000041417F00000447
:1050D0000201020400404040404000000102040080
:1050E000002054545478007F4844443800384444E5
:1050F000442000384444487F003854545418000871
:105100007E0901020018A4A4A47C007F080404788E
:105110000000447D4000004080847D00007F102816
:1051200044000000417F4000007C04180478007CAB
:105130000804047800384444443800FC242424182B
:105140000018242418FC007C080404080048545467
:10515000542000043F444020003C4040207C001C80
:105160002040201C003C4030403C00442810284493
:10517000001CA0A0A07C004464544C4414141414DB
:1051800014140000000000000000000000000000F7
:105190000000000000F800000000000000333000B4
:1051A000000000100C06100C0600000000000000BB
:1051B000000040C07840C0784000043F04043F0431
:1051C0000400007088FC08300000001820FF211E39
:1051D0000000F008F000E018000000211C031E2170
:1051E0001E0000F00888700000001E2123241927EB
:1051F000211010160E00000000000000000000004A
:105200000000000000E01804020000000007182061
:10521000400000020418E0000000004020180700D1
:105220000000404080F0804040000202010F010277
:105230000200000000F0000000000101011F010158
:105240000100000000000000000080B070000000BD
:105250000000000000000000000000010101010149
:1052600001010000000000000000003030000000DC
:1052700000000000000080601804006018060100B3
:10528000000000E010080810E000000F10202010BF
:105290000F00001010F8000000000020203F202028
:1052A00000000070080808887000003028242221BF
:1052B0003000003008888848300000182020201175
:1052C0000E000000C02010F8000000070424243F56
:1052D000240000F8088888080800001921202011FF
:1052E0000E0000E0108888180000000F1120201127
:1052F0000E0000380808C83808000000003F000011
:1053000000000070880808887000001C22212122FB
:105310001C0000E010080810E000000031222211FB
:105320000F00000000C0C00000000000003030008E
:10533000000000000080000000000000806000000D
:105340000000000080402010080000010204081046
:105350002000404040404040400004040404040455
:105360000400000810204080000000201008040203
:105370000100007048080808F00000000030360105
:105380000000C030C828E810E000071827242314C4
:105390000B000000C038E0000000203C2302022780
:1053A000382008F8888888700000203F20202011CD
:1053B0000E00C03008080808380007182020201008
:1053C000080008F808080810E000203F20202010FE
:1053D0000F0008F88888E8081000203F20202320CC
:1053E000180008F88888E8081000203F2000030013
:1053F0000000C03008080838000007182020221ECE
:10540000020008F808000008F808203F21010121E7
:105410003F20000808F8080800000020203F202056
:10542000000000000808F8080800C08080807F00A5
:10543000000008F888C028180800203F20012638FE
:10544000200008F8080000000000203F2020202055
:10545000300008F8F800F8F80800203F003F003F4F
:10546000200008F830C00008F808203F2000071886
:105470003F00E01008080810E0000F102020201066
:105480000F0008F808080808F000203F210101017A
:105490000000E01008080810E0000F18242438501D
:1054A0004F0008F8888888887000203F2000030C8F
:1054B0003020007088080808380000382021212298
:1054C0001C00180808F8080818000000203F2000F9
:1054D000000008F808000008F808001F202020201D
:1054E0001F000878880000C83808000007380E013F
:1054F0000000F80800F80008F800033C0700073C2B
:105500000300081868808068180820302C03032CDA
:1055100030200838C800C83808000000203F2000AC
:10552000000010080808C83808002038262120206C
:105530001800000000FE020202000000007F404050
:105540004000000C30C000000000000000010638E0
:10555000C00000020202FE000000004040407F0048
:10556000000000000402020204000000000000002D
:10557000000000000000000000008080808080802B
:105580008080000202040000000000000000000013
:105590000000000080808080000000192422222268
:1055A0003F2008F8008080000000003F11202011FB
:1055B0000E000000008080800000000E11202020DE
:1055C0001100000000808088F800000E11202010DB
:1055D0003F200000808080800000001F22222222C5
:1055E0001300008080F0888888180020203F202049
:1055F00000000000808080808000006B9494949371
:10560000600008F8008080800000203F210000201A
:105610003F2000809898000000000020203F2020BC
:105620000000000000809898000000C08080807F0B
:10563000000008F8000080808000203F24022D3008
:105640002000000808F8000000000020203F202073
:1056500000008080808080808000203F20003F20EC
:10566000003F8080008080800000203F21000020DB
:105670003F200000808080800000001F202020202C
:105680001F00808000808000000080FFA12020118A
:105690000E000000008080808000000E112020A0FD
:1056A000FF80808080008080800020203F212000BB
:1056B00001000000808080808000003324242424A6
:1056C0001900008080E0808000000000001F202082
:1056D00000008080000000808000001F202020103B
:1056E0003F20808080000080808000010E3008060E
:1056F000010080800080008080800F300C030C301F
:105700000F0000808000808080000020312E0E314C
:105710002000808080000080808080818E7018064C
:10572000010000808080808080000021302C2221B8
:10573000300000000000807C020200000000003FFA
:10574000404000000000FF00000000000000FF00DB
:1057500000000002027C800000000040403F00008A
:105760000000000601010202040400000000000025
:10577000000002030405060708090A0B0C0D0E0FB2
:1057800010100102030405060708090A0B0C0D0E90
:105790000F100000000000000000010203040607D3
:1057A000080900000000010203040000CC570008B3
:1057B00000000020D0000000C40100089C58000830
:1057C000D000002000090000E001000800000000F7
:1057D00000000000000000000000000000000000C9
:1057E00000000000000000000000000000000000B9
:1057F00000000000000000000000000000000000A9
:1058000000000000000000000A000A000000000084
:105810000000000000000000000000000000000088
:105820000000000000000000000000000000000078
:105830000000000000000000000000000000000068
:105840000000000000000000000000000000000058
:105850000008000000000000000000000000000040
:105860000000000000080000000000000000000030
:1058700000000000000000000000000050000000D8
:105880000000000000000000000000000100000017
:0C589000100000000000000000127A0070
:040000050800018965
:00000001FF
